:020000040000FA
:0600000072EF7DF012001A
:0600080088EF5EF012001B
:06002A00050006FE0000C7
:10003000FE0300000200000000FE0000F7010000C7
:10004000060000005BFD000000030000A5000000AA
:100050005AFD0000FF0200000100000002FB00004A
:080060005907000058020000DE
:08006800D9CFE6FFE1CFD9FF7B
:10007000E652DF6ADF6A640EDF5C2CE2DF50040DBB
:10008000F3CFE9FFF4CFEAFFC90EE926050EEA2215
:10009000EE6AEE6AEE6AEE6ADF50040DF3CFE9FF16
:1000A000F4CFEAFF000EE9260A0EEA22EE6AEE6AB3
:1000B000EE6AEE6ADF50040DF3CFE9FFF4CFEAFFFA
:1000C000390EE926040EEA22EE6AEE6AEE6AEE6A5C
:1000D000DF2AD1D73CD88FD8CFEC60F0B5EC7BF0DD
:1000E000AAEC43F050EC55F096EC79F062EC7CF021
:1000F00070EC2DF098EC56F0F28E939C819C0400ED
:10010000040100A304D0DBEC7AF004010093EEECD0
:1001100043F0D6EC5FF0030112510DE00901B65136
:1001200006E10301F651F71102E1DEEC5BF0A5EC0C
:1001300056F00301126BE9EC51F0F5EC5BF01DECAD
:100140005BF0DDD7E552E552E7CFD9FF1200926AA6
:10015000936A946A956A966A806A816A826A836AF7
:10016000846A070EB46E96980F0EC16E94908290BA
:100170009492829293928192949482949394819493
:100180009694849496928492949C829C948E938666
:100190009388938A96948494939C819C939E819E49
:1001A000949482949496829694988298949A829A3F
:1001B0000401006B016B0901B66B03019F6B040125
:1001C000046B0101070E056F010E066F05C1E9FF03
:1001D00006C1EAFFEECF00F1EECF01F1EECF02F162
:1001E000EECF03F1EFCF04F10301376B386BD09EF4
:1001F000F28EF28C12000101DF0E076F090E086FFC
:100200000C0E096F010E0A6F140E0B6FBB0E0C6FF4
:10021000090E0D6F110E0E6F010E0F6F020E106F93
:10022000BA0E116F090E126F160E136F010E146FB6
:10023000010E156FED0E166F090E176F1B0E186F5E
:10024000010E196F1C0E1A6FBC0E1B6F090E1C6F6E
:10025000200E1D6F010E1E6F030E1F6FC40E206F48
:10026000090E216F250E226F010E236F060E246FDB
:10027000C50E256F090E266F2A0E276F010E286FF7
:10028000070E296FC70E2A6F090E2B6F2F0E2C6FCA
:10029000010E2D6F120E2E6FE00E2F6F090E306FB4
:1002A000340E316F010E326F150E336FE10E346F65
:1002B000090E356F390E366F010E376F160E386F17
:1002C000E50E396F090E3A6F3E0E3B6F010E3C6F23
:1002D000190E3D6FC90E3E6F090E3F6F430E406F02
:1002E000010E416F080E426FC60E436F090E446F38
:1002F000480E456F010E466F090E476FC80E486FD6
:10030000090E496F4D0E4A6F010E4B6F130E4C6F65
:10031000E30E4D6F090E4E6F520E4F6F010E506F70
:10032000170E516FE40E526F090E536F570E546F34
:10033000010E556F180E566FE60E576F090E586F67
:100340005C0E596F010E5A6F360E5B6FC00E5C6FFC
:10035000090E5D6F610E5E6F010E5F6F050E606FBF
:10036000BE0E616F090E626F660E636F010E646FE1
:10037000040E656FE90E666F090E676F6B0E686F8E
:10038000010E696F1A0E6A6FCA0E6B6F090E6C6FE1
:10039000700E6D6F010E6E6F0B0E6F6FCB0E706F68
:1003A000090E716F750E726F010E736F0D0E746F03
:1003B000CC0E756F090E766F7A0E776F010E786F1F
:1003C0000F0E796FCD0E7A6F090E7B6F7F0E7C6FEB
:1003D000010E7D6F110E7E6FEB0E7F6F090E806F29
:1003E000840E816F010E826F1B0E836FBD0E846FB2
:1003F000090E856F890E866F010E876F330E886F29
:10040000D30E896F090E8A6F8E0E8B6F010E8C6F63
:10041000270E8D6FD40E8E6F090E8F6F930E906F17
:10042000010E916F280E926FD50E936F090E946F87
:10043000980E956F010E966F290E976FD60E986FD6
:10044000090E996F9D0E9A6F010E9B6F2A0E9C6F7D
:10045000E20E9D6F090E9E6FA20E9F6F010EA06FA0
:100460002B0EA16FE70EA26F090EA36FA70EA46F4C
:10047000010EA56F370EA66FD90EA76F090EA86FD4
:10048000AC0EA96F010EAA6F2D0EAB6FD70EAC6F1D
:10049000090EAD6FB10EAE6F010EAF6F2C0EB06FC7
:1004A000D80EB16F090EB26FB60EB36F010EB46FF6
:1004B0002E0EB56FDA0EB66F090EB76FBB0EB86FA2
:1004C000010EB96F2F0EBA6FDB0EBB6F090EBC6F3A
:1004D000C00EBD6F010EBE6F300EBF6FE80EC06F55
:1004E000090EC16FC50EC26F010EC36F380EC46F07
:1004F000C10EC56F090EC66FCA0EC76F010EC86F59
:10050000340EC96FBF0ECA6F090ECB6FCF0ECC6F02
:10051000010ECD6F350ECE6FEA0ECF6F090ED06F84
:10052000D40ED16F010ED26F310ED36FD10ED46FB6
:10053000090ED56FD90ED66F010ED76F250ED86F65
:10054000D20ED96F090EDA6FDE0EDB6F010EDC6F93
:10055000260EDD6FCF0EDE6F090EDF6FE30EE06F4C
:10056000010EE16F230EE26FD00EE36F090EE46F10
:10057000E80EE56F010EE66F240EE76FEC0EE86FF4
:10058000090EE96FED0EEA6F010EEB6F320EEC6FA4
:10059000CE0EED6F090EEE6FF20EEF6F010EF06FE3
:1005A000210EF16FB80EF26F090EF36F070EF46FA4
:1005B000010EF56F220EF66F1200D9CFE6FFE1CFE4
:1005C000D9FFE65205C1E9FF06C1EAFFEECF00F10F
:1005D000EECF01F1EECF02F1EECF03F1EFCF04F158
:1005E0000901B1051AE101010251031116E00901E7
:1005F000B60513E102C105F103C106F105C1E9FF2A
:1006000006C1EAFFEECF00F1EECF01F1EECF02F12D
:10061000EECF03F1EFCF04F133D0FF0E0901B15D4E
:100620002FE1B6052DE1070E0101051902E1010ECA
:10063000061905E1F20E056F010E066F13D0F20EDA
:10064000051902E1010E061905E1ED0E056F010E17
:10065000066F08D002C105F103C106F10A0E055F5D
:10066000000E065B05C1E9FF06C1EAFFEECF00F10F
:10067000EECF01F1EECF02F1EECF03F1EFCF04F1B7
:100680000901B60508E0020EB65D05E0040EB65D90
:1006900002E06BEF2DF0B60502E015EF12F001015C
:1006A000FC6BBE0E0101001902E1090E01194EE1B9
:1006B0007D0E0301006F016B090E026F010E036FC7
:1006C000C80E046F056B0E0E066F010E076F130E3A
:1006D000086F010E096FA50E0A6F0B6B360E0C6FBB
:1006E000010E0D6F360E0E6F010E0F6F0EC3E6FF7B
:1006F0000FC3E6FF0CC3E6FF0DC3E6FF0AC3E6FF28
:100700000BC3E6FF08C3E6FF09C3E6FF06C3E6FF27
:1007100007C3E6FF04C3E6FF05C3E6FF02C3E6FF27
:1007200003C3E6FF00C3E6FF01C3E6FFCFEC61F0C1
:10073000006E100EE15E005054C20BF255C20CF276
:1007400056C20DF257C20EF258C20FF2BF0E01018F
:10075000001902E1090E011950E17D0E0301006F3D
:10076000016B090E026F010E036FC80E046F056B5B
:100770000E0E066F010E076F130E086F010E096F44
:10078000AA0E0A6F0B6B360E0C6F010E0D6F360E34
:100790000E6F010E0F6F0EC3E6FF0FC3E6FF0CC313
:1007A000E6FF0DC3E6FF0AC3E6FF0BC3E6FF08C37F
:1007B000E6FF09C3E6FF06C3E6FF07C3E6FF04C37F
:1007C000E6FF05C3E6FF02C3E6FF03C3E6FF00C37F
:1007D000E6FF01C3E6FFCFEC61F0006E100EE15EB4
:1007E000005059C20BF25AC20CF25BC20DF25CC24D
:1007F0000EF25DC20FF213EF12F0C00E001902E10B
:10080000090E011943E1780E0301006F016B0269C3
:10081000036B7D0E046F056B090E066F010E076FEB
:10082000C80E086F096B0E0E0A6F010E0B6F130EC8
:100830000C6F010E0D6FA50E0E6F0F6B0EC3E6FF52
:100840000FC3E6FF0CC3E6FF0DC3E6FF0AC3E6FFD6
:100850000BC3E6FF08C3E6FF09C3E6FF06C3E6FFD6
:1008600007C3E6FF04C3E6FF05C3E6FF02C3E6FFD6
:1008700003C3E6FF00C3E6FF01C3E6FFCFEC61F070
:10088000006E100EE15E005013EF12F0C10E001961
:1008900002E1090E011943E1780E0301006F016BBB
:1008A0000269036B7D0E046F056B090E066F010E66
:1008B000076FC80E086F096B0E0E0A6F010E0B6FE3
:1008C000130E0C6F010E0D6FAA0E0E6F0F6B0EC381
:1008D000E6FF0FC3E6FF0CC3E6FF0DC3E6FF0AC346
:1008E000E6FF0BC3E6FF08C3E6FF09C3E6FF06C346
:1008F000E6FF07C3E6FF04C3E6FF05C3E6FF02C346
:10090000E6FF03C3E6FF00C3E6FF01C3E6FFCFEC4B
:1009100061F0006E100EE15E005013EF12F0BB0E9E
:10092000001902E1090E01194CE17D0E0301006F6F
:10093000016BFA0E026F036BF50E046F056B130E5D
:10094000066F010E076FFA0E086F096B410E0A6FF2
:100950000B6BC80E0C6F0D6BBE0E0E6F0F6B0EC3C4
:10096000E6FF0FC3E6FF0CC3E6FF0DC3E6FF0AC3B5
:10097000E6FF0BC3E6FF08C3E6FF09C3E6FF06C3B5
:10098000E6FF07C3E6FF04C3E6FF05C3E6FF02C3B5
:10099000E6FF03C3E6FF00C3E6FF01C3E6FFCFECBB
:1009A00061F0006E100EE15E005029C20BF22AC207
:1009B0000CF22BC20DF22CC20EF22DC20FF213EF6D
:1009C00012F0BA0E001902E1090E011944E1730E8A
:1009D0000301006F016B180E026F010E036FF00E22
:1009E000046F056B410E066F076BDC0E086F096B19
:1009F000D20E0A6F0B6B360E0C6F010E0D6F360E9A
:100A00000E6F010E0F6F0EC3E6FF0FC3E6FF0CC3A0
:100A1000E6FF0DC3E6FF0AC3E6FF0BC3E6FF08C30C
:100A2000E6FF09C3E6FF06C3E6FF07C3E6FF04C30C
:100A3000E6FF05C3E6FF02C3E6FF03C3E6FF00C30C
:100A4000E6FF01C3E6FFCFEC61F0006E100EE15E41
:100A5000005013EF12F0BC0E001902E1090E01194B
:100A60004FE13C0E0301006F016BFA0E026F036B46
:100A7000F50E046F056B0E0E066F010E076F130E59
:100A8000086F010E096F6D0E0A6F010E0B6FA50E38
:100A90000C6F0D6B360E0E6F010E0F6F0EC3E6FF5F
:100AA0000FC3E6FF0CC3E6FF0DC3E6FF0AC3E6FF74
:100AB0000BC3E6FF08C3E6FF09C3E6FF06C3E6FF74
:100AC00007C3E6FF04C3E6FF05C3E6FF02C3E6FF74
:100AD00003C3E6FF00C3E6FF01C3E6FFCFEC61F00E
:100AE000006E100EE15E005010C20BF211C20CF24B
:100AF00012C20DF213C20EF214C20FF213EF12F073
:100B0000BD0E001902E1090E01194FE13C0E03016F
:100B1000006F016BFA0E026F036BF50E046F056B2D
:100B20000E0E066F010E076F130E086F010E096F90
:100B30006D0E0A6F010E0B6FAA0E0C6F0D6B360E49
:100B40000E6F010E0F6F0EC3E6FF0FC3E6FF0CC35F
:100B5000E6FF0DC3E6FF0AC3E6FF0BC3E6FF08C3CB
:100B6000E6FF09C3E6FF06C3E6FF07C3E6FF04C3CB
:100B7000E6FF05C3E6FF02C3E6FF03C3E6FF00C3CB
:100B8000E6FF01C3E6FFCFEC61F0006E100EE15E00
:100B9000005015C20BF216C20CF217C20DF218C2A9
:100BA0000EF219C20FF213EF12F0C50E001902E196
:100BB000090E01194EE1690E0301006F016BDC0E95
:100BC000026F036BF00E046F056B050E066F076B6B
:100BD000A50E086F096B360E0A6F010E0B6F360EED
:100BE0000C6F010E0D6F360E0E6F010E0F6F0EC3E0
:100BF000E6FF0FC3E6FF0CC3E6FF0DC3E6FF0AC323
:100C0000E6FF0BC3E6FF08C3E6FF09C3E6FF06C322
:100C1000E6FF07C3E6FF04C3E6FF05C3E6FF02C322
:100C2000E6FF03C3E6FF00C3E6FF01C3E6FFCFEC28
:100C300061F0006E100EE15E00501FC20BF220C288
:100C40000CF221C20DF222C20EF223C20FF213EFF8
:100C500012F0C40E001902E1090E011941E1780EEB
:100C60000301006F016B0269036B690E046F056B72
:100C7000DC0E066F076BF00E086F096B050E0A6F2E
:100C80000B6BA50E0C6F0D6B360E0E6F010E0F6FFA
:100C90000EC3E6FF0FC3E6FF0CC3E6FF0DC3E6FF7E
:100CA0000AC3E6FF0BC3E6FF08C3E6FF09C3E6FF7E
:100CB00006C3E6FF07C3E6FF04C3E6FF05C3E6FF7E
:100CC00002C3E6FF03C3E6FF00C3E6FF01C3E6FF7E
:100CD000CFEC61F0006E100EE15E005013EF12F0E9
:100CE000C70E001902E1090E01194FE1550E03016B
:100CF000006F016BDC0E026F036B0E0E046F010EB2
:100D0000056F130E066F010E076F050E086F096B56
:100D1000A50E0A6F0B6B360E0C6F010E0D6F360EA3
:100D20000E6F010E0F6F0EC3E6FF0FC3E6FF0CC37D
:100D3000E6FF0DC3E6FF0AC3E6FF0BC3E6FF08C3E9
:100D4000E6FF09C3E6FF06C3E6FF07C3E6FF04C3E9
:100D5000E6FF05C3E6FF02C3E6FF03C3E6FF00C3E9
:100D6000E6FF01C3E6FFCFEC61F0006E100EE15E1E
:100D7000005077C20BF278C20CF279C20DF27AC23F
:100D80000EF27BC20FF213EF12F0C60E001902E151
:100D9000090E01194EE1690E0301006F016BDC0EB3
:100DA000026F036BF00E046F056B0A0E066F076B84
:100DB000A50E086F096B360E0A6F010E0B6F360E0B
:100DC0000C6F010E0D6F360E0E6F010E0F6F0EC3FE
:100DD000E6FF0FC3E6FF0CC3E6FF0DC3E6FF0AC341
:100DE000E6FF0BC3E6FF08C3E6FF09C3E6FF06C341
:100DF000E6FF07C3E6FF04C3E6FF05C3E6FF02C341
:100E0000E6FF03C3E6FF00C3E6FF01C3E6FFCFEC46
:100E100061F0006E100EE15E005024C20BF225C29C
:100E20000CF226C20DF227C20EF228C20FF213EF07
:100E300012F0C90E001902E1090E011941E1780E04
:100E40000301006F016B0269036B690E046F056B90
:100E5000DC0E066F076BF00E086F096B0A0E0A6F47
:100E60000B6BA50E0C6F0D6B360E0E6F010E0F6F18
:100E70000EC3E6FF0FC3E6FF0CC3E6FF0DC3E6FF9C
:100E80000AC3E6FF0BC3E6FF08C3E6FF09C3E6FF9C
:100E900006C3E6FF07C3E6FF04C3E6FF05C3E6FF9C
:100EA00002C3E6FF03C3E6FF00C3E6FF01C3E6FF9C
:100EB000CFEC61F0006E100EE15E005013EF12F007
:100EC000C80E001902E1090E01194FE1550E030188
:100ED000006F016BDC0E026F036B0E0E046F010ED0
:100EE000056F130E066F010E076F0A0E086F096B70
:100EF000A50E0A6F0B6B360E0C6F010E0D6F360EC2
:100F00000E6F010E0F6F0EC3E6FF0FC3E6FF0CC39B
:100F1000E6FF0DC3E6FF0AC3E6FF0BC3E6FF08C307
:100F2000E6FF09C3E6FF06C3E6FF07C3E6FF04C307
:100F3000E6FF05C3E6FF02C3E6FF03C3E6FF00C307
:100F4000E6FF01C3E6FFCFEC61F0006E100EE15E3C
:100F500000507CC20BF27DC20CF27EC20DF27FC249
:100F60000EF280C20FF213EF12F0CA0E001902E166
:100F7000090E01194FE1460E0301006F016B026B70
:100F8000036BA50E046F056B360E066F010E076F1F
:100F9000360E086F010E096F360E0A6F010E0B6FC9
:100FA000360E0C6F010E0D6F360E0E6F010E0F6FA9
:100FB0000EC3E6FF0FC3E6FF0CC3E6FF0DC3E6FF5B
:100FC0000AC3E6FF0BC3E6FF08C3E6FF09C3E6FF5B
:100FD00006C3E6FF07C3E6FF04C3E6FF05C3E6FF5B
:100FE00002C3E6FF03C3E6FF00C3E6FF01C3E6FF5B
:100FF000CFEC61F0006E100EE15E00506DC20BF29E
:101000006EC20CF26FC20DF270C20EF271C20FF21C
:1010100013EF12F0CC0E001902E1090E011940E1A4
:10102000320E0301006F016BF50E026F036BB40EFD
:10103000046F056B3C0E066F076BB40E086F096BEF
:10104000EB0E0A6F0B6B0C6B0D6BA50E0E6F0F6B1F
:101050000EC3E6FF0FC3E6FF0CC3E6FF0DC3E6FFBA
:101060000AC3E6FF0BC3E6FF08C3E6FF09C3E6FFBA
:1010700006C3E6FF07C3E6FF04C3E6FF05C3E6FFBA
:1010800002C3E6FF03C3E6FF00C3E6FF01C3E6FFBA
:10109000CFEC61F0006E100EE15E005013EF12F025
:1010A000ED0E001902E1090E01194EE16E0E030169
:1010B000006F016BC80E026F036BC30E046F056BEC
:1010C000DC0E066F076BB40E086F096B360E0A6FE5
:1010D000010E0B6F360E0C6F010E0D6F360E0E6F7C
:1010E000010E0F6F0EC3E6FF0FC3E6FF0CC3E6FF52
:1010F0000DC3E6FF0AC3E6FF0BC3E6FF08C3E6FF26
:1011000009C3E6FF06C3E6FF07C3E6FF04C3E6FF25
:1011100005C3E6FF02C3E6FF03C3E6FF00C3E6FF25
:1011200001C3E6FFCFEC61F0006E100EE15E0050EF
:10113000CDC20BF2CEC20CF2CFC20DF2D0C20EF273
:10114000D1C20FF213EF12F0CB0E001902E1090E1B
:10115000011950E1460E0301006F016B050E026F8D
:10116000036BA50E046F056B360E066F010E076F3D
:10117000360E086F010E096F360E0A6F010E0B6FE7
:10118000360E0C6F010E0D6F360E0E6F010E0F6FC7
:101190000EC3E6FF0FC3E6FF0CC3E6FF0DC3E6FF79
:1011A0000AC3E6FF0BC3E6FF08C3E6FF09C3E6FF79
:1011B00006C3E6FF07C3E6FF04C3E6FF05C3E6FF79
:1011C00002C3E6FF03C3E6FF00C3E6FF01C3E6FF79
:1011D000CFEC61F0006E100EE15E005072C20BF2B7
:1011E00073C20CF274C20DF275C20EF276C20FF227
:1011F00013EF12F0CD0E001902E1090E011941E1C1
:10120000320E0301006F016BF50E026F036BB40E1B
:10121000046F056B3C0E066F076BB40E086F096B0D
:10122000EB0E0A6F0B6B050E0C6F0D6BA50E0E6FA0
:101230000F6B0EC3E6FF0FC3E6FF0CC3E6FF0DC343
:10124000E6FF0AC3E6FF0BC3E6FF08C3E6FF09C3D8
:10125000E6FF06C3E6FF07C3E6FF04C3E6FF05C3D8
:10126000E6FF02C3E6FF03C3E6FF00C3E6FF01C3D8
:10127000E6FFCFEC61F0006E100EE15E005013EF60
:1012800012F0CE0E001902E1090E011944E18C0E94
:101290000301006F016BC80E026F036BF50E046F44
:1012A000056BD70E066F076BB40E086F096B360E11
:1012B0000A6F010E0B6F360E0C6F010E0D6F360E9E
:1012C0000E6F010E0F6F0EC3E6FF0FC3E6FF0CC3D8
:1012D000E6FF0DC3E6FF0AC3E6FF0BC3E6FF08C344
:1012E000E6FF09C3E6FF06C3E6FF07C3E6FF04C344
:1012F000E6FF05C3E6FF02C3E6FF03C3E6FF00C344
:10130000E6FF01C3E6FFCFEC61F0006E100EE15E78
:10131000005013EF12F0B80E001902E1090E011986
:1013200046E18C0E0301006F016BB40E026F036B7C
:10133000DC0E046F056B090E066F010E076F360E8B
:10134000086F010E096F360E0A6F010E0B6F360E15
:101350000C6F010E0D6F360E0E6F010E0F6F0EC368
:10136000E6FF0FC3E6FF0CC3E6FF0DC3E6FF0AC3AB
:10137000E6FF0BC3E6FF08C3E6FF09C3E6FF06C3AB
:10138000E6FF07C3E6FF04C3E6FF05C3E6FF02C3AB
:10139000E6FF03C3E6FF00C3E6FF01C3E6FFCFECB1
:1013A00061F0006E100EE15E005013EF12F0DF0EE0
:1013B000001902E1090E011942E1960E0301006FC6
:1013C000016BF50E026F036BDC0E046F056BC30E31
:1013D000066F076BB40E086F096BC30E0A6F0B6BB9
:1013E000C80E0C6F0D6B360E0E6F010E0F6F0EC315
:1013F000E6FF0FC3E6FF0CC3E6FF0DC3E6FF0AC31B
:10140000E6FF0BC3E6FF08C3E6FF09C3E6FF06C31A
:10141000E6FF07C3E6FF04C3E6FF05C3E6FF02C31A
:10142000E6FF03C3E6FF00C3E6FF01C3E6FFCFEC20
:1014300061F0006E100EE15E005013EF12F0E00E4E
:10144000001902E1090E01194CE1910E0301006F30
:10145000016BB40E026F036B690E046F056BDC0E3B
:10146000066F076BF00E086F096B050E0A6F0B6BAA
:10147000A50E0C6F0D6B360E0E6F010E0F6F0EC3A7
:10148000E6FF0FC3E6FF0CC3E6FF0DC3E6FF0AC38A
:10149000E6FF0BC3E6FF08C3E6FF09C3E6FF06C38A
:1014A000E6FF07C3E6FF04C3E6FF05C3E6FF02C38A
:1014B000E6FF03C3E6FF00C3E6FF01C3E6FFCFEC90
:1014C00061F0006E100EE15E00509AC20BF29BC2FA
:1014D0000CF29CC20DF29DC20EF29EC20FF213EFEF
:1014E00012F0E10E001902E1090E01194CE1910E12
:1014F0000301006F016BC30E026F036B690E046F73
:10150000056BDC0E066F076BF00E086F096B050E9E
:101510000A6F0B6BA50E0C6F0D6B360E0E6F010E66
:101520000F6F0EC3E6FF0FC3E6FF0CC3E6FF0DC34C
:10153000E6FF0AC3E6FF0BC3E6FF08C3E6FF09C3E5
:10154000E6FF06C3E6FF07C3E6FF04C3E6FF05C3E5
:10155000E6FF02C3E6FF03C3E6FF00C3E6FF01C3E5
:10156000E6FFCFEC61F0006E100EE15E0050A9C204
:101570000BF2AAC20CF2ABC20DF2ACC20EF2ADC2BB
:101580000FF213EF12F0E20E001902E1090E011939
:101590004CE1910E0301006F016BC30E026F036BF0
:1015A000690E046F056BDC0E066F076BF00E086F9B
:1015B000096B0F0E0A6F0B6BAA0E0C6F0D6B360EBC
:1015C0000E6F010E0F6F0EC3E6FF0FC3E6FF0CC3D5
:1015D000E6FF0DC3E6FF0AC3E6FF0BC3E6FF08C341
:1015E000E6FF09C3E6FF06C3E6FF07C3E6FF04C341
:1015F000E6FF05C3E6FF02C3E6FF03C3E6FF00C341
:10160000E6FF01C3E6FFCFEC61F0006E100EE15E75
:1016100000509FC20BF2A0C20CF2A1C20DF2A2C2F6
:101620000EF2A3C20FF213EF12F0E30E001902E163
:10163000090E01194CE1910E0301006F016BB40E0C
:10164000026F036B690E046F056BDC0E066F076B90
:10165000F00E086F096B0A0E0A6F0B6BA50E0C6F6C
:101660000D6B360E0E6F010E0F6F0EC3E6FF0FC32C
:10167000E6FF0CC3E6FF0DC3E6FF0AC3E6FF0BC39C
:10168000E6FF08C3E6FF09C3E6FF06C3E6FF07C39C
:10169000E6FF04C3E6FF05C3E6FF02C3E6FF03C39C
:1016A000E6FF00C3E6FF01C3E6FFCFEC61F0006E8A
:1016B000100EE15E0050AEC20BF2AFC20CF2B0C22F
:1016C0000DF2B1C20EF2B2C20FF213EF12F0E40E3D
:1016D000001902E1090E01194CE1910E0301006F9E
:1016E000016BC30E026F036B690E046F056BDC0E9A
:1016F000066F076BF00E086F096B0A0E0A6F0B6B13
:10170000A50E0C6F0D6B360E0E6F010E0F6F0EC314
:10171000E6FF0FC3E6FF0CC3E6FF0DC3E6FF0AC3F7
:10172000E6FF0BC3E6FF08C3E6FF09C3E6FF06C3F7
:10173000E6FF07C3E6FF04C3E6FF05C3E6FF02C3F7
:10174000E6FF03C3E6FF00C3E6FF01C3E6FFCFECFD
:1017500061F0006E100EE15E0050B3C20BF2B4C235
:101760000CF2B5C20DF2B6C20EF2B7C20FF213EF11
:1017700012F0E50E001902E1090E011943E1550EC0
:101780000301006F016BFA0E026F036BEB0E046F27
:10179000056BC30E066F076B050E086F096BA50E70
:1017A0000A6F0B6B360E0C6F010E0D6F360E0E6F3F
:1017B000010E0F6F0EC3E6FF0FC3E6FF0CC3E6FF7B
:1017C0000DC3E6FF0AC3E6FF0BC3E6FF08C3E6FF4F
:1017D00009C3E6FF06C3E6FF07C3E6FF04C3E6FF4F
:1017E00005C3E6FF02C3E6FF03C3E6FF00C3E6FF4F
:1017F00001C3E6FFCFEC61F0006E100EE15E005019
:1018000013EF12F0E60E001902E1090E011943E18F
:10181000550E0301006F016BFA0E026F036BEB0EA6
:10182000046F056BC30E066F076B0A0E086F096B1A
:10183000A50E0A6F0B6B360E0C6F010E0D6F360E78
:101840000E6F010E0F6F0EC3E6FF0FC3E6FF0CC352
:10185000E6FF0DC3E6FF0AC3E6FF0BC3E6FF08C3BE
:10186000E6FF09C3E6FF06C3E6FF07C3E6FF04C3BE
:10187000E6FF05C3E6FF02C3E6FF03C3E6FF00C3BE
:10188000E6FF01C3E6FFCFEC61F0006E100EE15EF3
:10189000005013EF12F0E70E001902E1090E0119D2
:1018A00043E1550E0301006F016BFA0E026F036BEB
:1018B000EB0E046F056BC30E066F076B0F0E086F00
:1018C000096BAA0E0A6F0B6B360E0C6F010E0D6FB3
:1018D000360E0E6F010E0F6F0EC3E6FF0FC3E6FF4D
:1018E0000CC3E6FF0DC3E6FF0AC3E6FF0BC3E6FF2A
:1018F00008C3E6FF09C3E6FF06C3E6FF07C3E6FF2A
:1019000004C3E6FF05C3E6FF02C3E6FF03C3E6FF29
:1019100000C3E6FF01C3E6FFCFEC61F0006E100EDE
:10192000E15E005013EF12F0E80E001902E1090E1B
:10193000011943E1550E0301006F016BFA0E026FAE
:10194000036BEB0E046F056BC30E066F076B140E73
:10195000086F096BAA0E0A6F0B6B360E0C6F010E27
:101960000D6F360E0E6F010E0F6F0EC3E6FF0FC325
:10197000E6FF0CC3E6FF0DC3E6FF0AC3E6FF0BC399
:10198000E6FF08C3E6FF09C3E6FF06C3E6FF07C399
:10199000E6FF04C3E6FF05C3E6FF02C3E6FF03C399
:1019A000E6FF00C3E6FF01C3E6FFCFEC61F0006E87
:1019B000100EE15E005013EF12F0E90E001902E183
:1019C000090E01194EE14B0E0301006F016BDC0E95
:1019D000026F036BEB0E046F056B130E066F010EA7
:1019E000076F090E086F010E096FFA0E0A6F0B6B75
:1019F000A50E0C6F0D6B360E0E6F010E0F6F0EC322
:101A0000E6FF0FC3E6FF0CC3E6FF0DC3E6FF0AC304
:101A1000E6FF0BC3E6FF08C3E6FF09C3E6FF06C304
:101A2000E6FF07C3E6FF04C3E6FF05C3E6FF02C304
:101A3000E6FF03C3E6FF00C3E6FF01C3E6FFCFEC0A
:101A400061F0006E100EE15E005090C20BF291C288
:101A50000CF292C20DF293C20EF294C20FF213EF87
:101A600012F0EA0E001902E1090E01194EE14B0EC7
:101A70000301006F016BDC0E026F036BEB0E046F52
:101A8000056B130E066F010E076F090E086F010E2E
:101A9000096FFA0E0A6F0B6BAA0E0C6F0D6B360EE8
:101AA0000E6F010E0F6F0EC3E6FF0FC3E6FF0CC3F0
:101AB000E6FF0DC3E6FF0AC3E6FF0BC3E6FF08C35C
:101AC000E6FF09C3E6FF06C3E6FF07C3E6FF04C35C
:101AD000E6FF05C3E6FF02C3E6FF03C3E6FF00C35C
:101AE000E6FF01C3E6FFCFEC61F0006E100EE15E91
:101AF000005095C20BF296C20CF297C20DF298C23A
:101B00000EF299C20FF213EF12F0EB0E001902E180
:101B1000090E011941E16E0E0301006F016BFA0E0F
:101B2000026F036BC30E046F056BFA0E066F076B33
:101B30006E0E086F096BC80E0A6F0B6BC30E0C6F2D
:101B40000D6BA50E0E6F0F6B0EC3E6FF0FC3E6FF06
:101B50000CC3E6FF0DC3E6FF0AC3E6FF0BC3E6FFB7
:101B600008C3E6FF09C3E6FF06C3E6FF07C3E6FFB7
:101B700004C3E6FF05C3E6FF02C3E6FF03C3E6FFB7
:101B800000C3E6FF01C3E6FFCFEC61F0006E100E6C
:101B9000E15E005013EF12F0EC0E001902E1090EA5
:101BA000011941E16E0E0301006F016BFA0E026F25
:101BB000036BC30E046F056BFA0E066F076B6E0E98
:101BC000086F096BC80E0A6F0B6BC30E0C6F0D6BA1
:101BD000AA0E0E6F0F6B0EC3E6FF0FC3E6FF0CC31A
:101BE000E6FF0DC3E6FF0AC3E6FF0BC3E6FF08C32B
:101BF000E6FF09C3E6FF06C3E6FF07C3E6FF04C32B
:101C0000E6FF05C3E6FF02C3E6FF03C3E6FF00C32A
:101C1000E6FF01C3E6FFCFEC61F0006E100EE15E5F
:101C2000005013EF12F0D10E001902E1090E011954
:101C30004EE1460E0301006F016B026B036BAA0EAF
:101C4000046F056B360E066F010E076F360E086FB8
:101C5000010E096F360E0A6F010E0B6F360E0C6FF8
:101C6000010E0D6F360E0E6F010E0F6F0EC3E6FFE5
:101C70000FC3E6FF0CC3E6FF0DC3E6FF0AC3E6FF92
:101C80000BC3E6FF08C3E6FF09C3E6FF06C3E6FF92
:101C900007C3E6FF04C3E6FF05C3E6FF02C3E6FF92
:101CA00003C3E6FF00C3E6FF01C3E6FFCFEC61F02C
:101CB000006E100EE15E005045C20BF246C20CF2FF
:101CC00047C20DF248C20EF249C20FF2ACD3D20E97
:101CD000001902E1090E01194FE1460E0301006FE0
:101CE000016B050E026F036BAA0E046F056B360EB7
:101CF000066F010E076F360E086F010E096F360E64
:101D00000A6F010E0B6F360E0C6F010E0D6F360E43
:101D10000E6F010E0F6F0EC3E6FF0FC3E6FF0CC37D
:101D2000E6FF0DC3E6FF0AC3E6FF0BC3E6FF08C3E9
:101D3000E6FF09C3E6FF06C3E6FF07C3E6FF04C3E9
:101D4000E6FF05C3E6FF02C3E6FF03C3E6FF00C3E9
:101D5000E6FF01C3E6FFCFEC61F0006E100EE15E1E
:101D600000504AC20BF24BC20CF24CC20DF24DC2F3
:101D70000EF24EC20FF257D3CF0E001902E1090E38
:101D800001193FE1320E0301006F016BF50E026F86
:101D9000036BB40E046F056B3C0E066F076BB40E3D
:101DA000086F096BEB0E0A6F0B6B0C6B0D6BAA0EB9
:101DB0000E6F0F6B0EC3E6FF0FC3E6FF0CC3E6FF0B
:101DC0000DC3E6FF0AC3E6FF0BC3E6FF08C3E6FF49
:101DD00009C3E6FF06C3E6FF07C3E6FF04C3E6FF49
:101DE00005C3E6FF02C3E6FF03C3E6FF00C3E6FF49
:101DF00001C3E6FFCFEC61F0006E100EE15E005013
:101E000012D3D00E001902E1090E011940E1320E81
:101E10000301006F016BF50E026F036BB40E046FCC
:101E2000056B3C0E066F076BB40E086F096BEB0E6B
:101E30000A6F0B6B050E0C6F0D6BAA0E0E6F0F6BFE
:101E40000EC3E6FF0FC3E6FF0CC3E6FF0DC3E6FFBC
:101E50000AC3E6FF0BC3E6FF08C3E6FF09C3E6FFBC
:101E600006C3E6FF07C3E6FF04C3E6FF05C3E6FFBC
:101E700002C3E6FF03C3E6FF00C3E6FF01C3E6FFBC
:101E8000CFEC61F0006E100EE15E0050CCD2D30EAC
:101E9000001902E1090E011940E1780E0301006FFB
:101EA000016B0269036B690E046F056BDC0E066F34
:101EB000076BF00E086F096B0F0E0A6F0B6BAA0E03
:101EC0000C6F0D6B360E0E6F010E0F6F0EC3E6FF1B
:101ED0000FC3E6FF0CC3E6FF0DC3E6FF0AC3E6FF30
:101EE0000BC3E6FF08C3E6FF09C3E6FF06C3E6FF30
:101EF00007C3E6FF04C3E6FF05C3E6FF02C3E6FF30
:101F000003C3E6FF00C3E6FF01C3E6FFCFEC61F0C9
:101F1000006E100EE15E005086D2D50E001902E16F
:101F2000090E01194EE1550E0301006F016BDC0E25
:101F3000026F036B0E0E046F010E056F130E066F1A
:101F4000010E076F0F0E086F096BAA0E0A6F0B6B5D
:101F5000360E0C6F010E0D6F360E0E6F010E0F6FE9
:101F60000EC3E6FF0FC3E6FF0CC3E6FF0DC3E6FF9B
:101F70000AC3E6FF0BC3E6FF08C3E6FF09C3E6FF9B
:101F800006C3E6FF07C3E6FF04C3E6FF05C3E6FF9B
:101F900002C3E6FF03C3E6FF00C3E6FF01C3E6FF9B
:101FA000CFEC61F0006E100EE15E005040C20BF20B
:101FB00041C20CF242C20DF243C20EF244C20FF211
:101FC00032D2D40E001902E1090E01194DE1690E59
:101FD0000301006F016BDC0E026F036BF00E046FE8
:101FE000056B0F0E066F076BAA0E086F096B360E96
:101FF0000A6F010E0B6F360E0C6F010E0D6F360E51
:102000000E6F010E0F6F0EC3E6FF0FC3E6FF0CC38A
:10201000E6FF0DC3E6FF0AC3E6FF0BC3E6FF08C3F6
:10202000E6FF09C3E6FF06C3E6FF07C3E6FF04C3F6
:10203000E6FF05C3E6FF02C3E6FF03C3E6FF00C3F6
:10204000E6FF01C3E6FFCFEC61F0006E100EE15E2B
:10205000005036C20BF237C20CF238C20DF239C250
:102060000EF23AC20FF2DFD1D70E001902E1090ECB
:1020700001194DE1690E0301006F016BDC0E026F67
:10208000036BF00E046F056B140E066F076BAA0E40
:10209000086F096B360E0A6F010E0B6F360E0C6F50
:1020A000010E0D6F360E0E6F010E0F6F0EC3E6FFA1
:1020B0000FC3E6FF0CC3E6FF0DC3E6FF0AC3E6FF4E
:1020C0000BC3E6FF08C3E6FF09C3E6FF06C3E6FF4E
:1020D00007C3E6FF04C3E6FF05C3E6FF02C3E6FF4E
:1020E00003C3E6FF00C3E6FF01C3E6FFCFEC61F0E8
:1020F000006E100EE15E00503BC20BF23CC20CF2CF
:102100003DC20DF23EC20EF23FC20FF28CD1D60E8E
:10211000001902E1090E01194BE1910E0301006F54
:10212000016BB40E026F036B690E046F056BDC0E5E
:10213000066F076BF00E086F096B0F0E0A6F0B6BC3
:10214000AA0E0C6F0D6B360E0E6F010E0F6F0EC3C5
:10215000E6FF0FC3E6FF0CC3E6FF0DC3E6FF0AC3AD
:10216000E6FF0BC3E6FF08C3E6FF09C3E6FF06C3AD
:10217000E6FF07C3E6FF04C3E6FF05C3E6FF02C3AD
:10218000E6FF03C3E6FF00C3E6FF01C3E6FFCFECB3
:1021900061F0006E100EE15E0050A4C20BF2A5C209
:1021A0000CF2A6C20DF2A7C20EF2A8C20FF23BD1EA
:1021B000D80E001902E1090E01194EE1550E030176
:1021C000006F016BDC0E026F036B0E0E046F010ECD
:1021D000056F130E066F010E076F140E086F096B63
:1021E000AA0E0A6F0B6B360E0C6F010E0D6F360EBA
:1021F0000E6F010E0F6F0EC3E6FF0FC3E6FF0CC399
:10220000E6FF0DC3E6FF0AC3E6FF0BC3E6FF08C304
:10221000E6FF09C3E6FF06C3E6FF07C3E6FF04C304
:10222000E6FF05C3E6FF02C3E6FF03C3E6FF00C304
:10223000E6FF01C3E6FFCFEC61F0006E100EE15E39
:10224000005086C20BF287C20CF288C20DF289C21E
:102250000EF28AC20FF2E7D0DA0E001902E1090E7F
:1022600001194BE1910E0301006F016BB40E026F77
:10227000036B690E046F056BDC0E066F076BF00EC7
:10228000086F096B140E0A6F0B6BAA0E0C6F0D6BA7
:10229000360E0E6F010E0F6F0EC3E6FF0FC3E6FF83
:1022A0000CC3E6FF0DC3E6FF0AC3E6FF0BC3E6FF60
:1022B00008C3E6FF09C3E6FF06C3E6FF07C3E6FF60
:1022C00004C3E6FF05C3E6FF02C3E6FF03C3E6FF60
:1022D00000C3E6FF01C3E6FFCFEC61F0006E100E15
:1022E000E15E00508BC20BF28CC20CF28DC20DF27B
:1022F0008EC20EF28FC20FF296D0DB0E001902E1F1
:10230000090E01194BE1910E0301006F016BC30E21
:10231000026F036B690E046F056BDC0E066F076BB3
:10232000F00E086F096B140E0A6F0B6BAA0E0C6F80
:102330000D6B360E0E6F010E0F6F0EC3E6FF0FC34F
:10234000E6FF0CC3E6FF0DC3E6FF0AC3E6FF0BC3BF
:10235000E6FF08C3E6FF09C3E6FF06C3E6FF07C3BF
:10236000E6FF04C3E6FF05C3E6FF02C3E6FF03C3BF
:10237000E6FF00C3E6FF01C3E6FFCFEC61F0006EAD
:10238000100EE15E005081C20BF282C20CF283C2D9
:102390000DF284C20EF285C20FF245D0D90E00199B
:1023A00002E1090E01193FE1780E0301006F016B94
:1023B0000269036B690E046F056BDC0E066F076B19
:1023C000F00E086F096B140E0A6F0B6BAA0E0C6FE0
:1023D0000D6B360E0E6F010E0F6F0EC3E6FF0FC3AF
:1023E000E6FF0CC3E6FF0DC3E6FF0AC3E6FF0BC31F
:1023F000E6FF08C3E6FF09C3E6FF06C3E6FF07C31F
:10240000E6FF04C3E6FF05C3E6FF02C3E6FF03C31E
:10241000E6FF00C3E6FF01C3E6FFCFEC61F0006E0C
:10242000100EE15E00506BEF2DF001010451220A05
:1024300002E107EF2DF0050A02E10EEF2CF0010A90
:1024400002E1A5EF2BF0030A02E13CEF2BF0080AB2
:1024500002E143EF2AF01D0A02E1DCEF29F01F0A36
:1024600002E175EF29F0010A02E10EEF29F00A0AF4
:1024700002E189EF28F0070A02E104EF28F0090AD7
:1024800002E19CEF27F0030A02E134EF27F0050A8E
:1024900002E1CCEF26F0040A02E164EF26F0090A1B
:1024A00002E1DAEF25F0280A02E172EF25F0010AD5
:1024B00002E178EF24F01B0A02E110EF24F0010A98
:1024C00002E1A8EF23F00A0A02E140EF23F00F0A2D
:1024D00002E1D8EF22F03C0A02E170EF22F03D0A5F
:1024E00002E108EF22F0030A02E1A0EF21F0240A42
:1024F00002E10DEF21F02B0A02E17AEF20F01D0A34
:1025000002E112EF20F0010A02E118EF1FF0320A97
:1025100002E158EF1EF0310A02E198EF1DF0110AB6
:1025200002E192EF1CF0260A02E1D7EF1BF0290A24
:1025300002E11CEF1BF0230A02E15CEF1AF00F0A24
:1025400002E19CEF19F0010A02E1DCEF18F02F0A1A
:1025500002E11CEF18F01B0A02E1CBEF17F0130A9F
:1025600002E146EF17F01E0A02E1C1EF16F0130A6E
:1025700001E10FD3110A01E1A2D2060A01E135D22D
:102580003E0A01E1CAD1310A01E15FD1370A01E116
:10259000F4D0300A01E189D0020A02E06BEF2DF09D
:1025A000B20EE96E090EEA6E0201F651EE24006EDB
:1025B000F751EE20016EF851EE20026EF951EE2037
:1025C000036E0334000E031809E6D880050E00548C
:1025D000000E0154000E0254000E03540CE3000ED2
:1025E0000901E76EB119E8AE02D0B13503D0E7506A
:1025F000D880B15521E3B20EE96E090EEA6E0201F0
:10260000F651EE24046EF751EE20056EF851EE20DF
:10261000066EF951EE20076ED8900750000A08E6C2
:10262000010E045C000E0558000E0658000E0758F7
:1026300015E30901B13512E3020EB65D0FE1B251A7
:102640000201F6270901B3510201F7230901B45130
:102650000201F8230901B5510201F923E66A010ECE
:10266000E66E2DC2E6FFF6C2E6FFF7C2E6FFF8C24D
:10267000E6FFF9C2E6FFACEC63F0006E070EE15E28
:102680000050040E0901B65D0EE1040EE66EF60E72
:10269000E66E020EE66E2D0EE66E6FEC56F0E5521B
:1026A000E552E552E5526BEF2DF00BC2EAF20CC297
:1026B000EBF20DC2ECF20EC2EDF2DF6A040E020183
:1026C000D8800F55DF5C19E20A0E236E246A256A52
:1026D000266AEAC21EF0EBC21FF0ECC220F0EDC287
:1026E00021F0BBEC77F01EC0EAF21FC0EBF220C075
:1026F000ECF221C0EDF2DF2AE1D7010EE66E070E03
:10270000E66E0FC2E6FFEAC2E6FFEBC2E6FFECC2EE
:10271000E6FFEDC2E6FFACEC63F0006E070EE15E93
:102720000050040E0901B65D26E10BC210F20CC286
:1027300011F20DC212F20EC213F20FC214F2040E05
:10274000E66E100EE66E020EE66E0A0EE66E6FEC98
:1027500056F0E552E552E552E552010EE66E140ED2
:10276000E66E020EE66E0E0EE66E6FEC56F0E55269
:10277000E552E552E5526BEF2DF00BC2EAF20CC2C6
:10278000EBF20DC2ECF20EC2EDF2DF6A040E0201B2
:10279000D8800F55DF5C19E20A0E236E246A256A81
:1027A000266AEAC21EF0EBC21FF0ECC220F0EDC2B6
:1027B00021F0BBEC77F01EC0EAF21FC0EBF220C0A4
:1027C000ECF221C0EDF2DF2AE1D7010EE66E070E32
:1027D000E66E0FC2E6FFEAC2E6FFEBC2E6FFECC21E
:1027E000E6FFEDC2E6FFACEC63F0006E070EE15EC3
:1027F0000050040E0901B65D26E10BC215F20CC2B1
:1028000016F20DC217F20EC218F20FC219F2040E20
:10281000E66E150EE66E020EE66EB40EE66E6FEC18
:1028200056F0E552E552E552E552010EE66E190EFC
:10283000E66E020EE66EB80EE66E6FEC56F0E552EE
:10284000E552E552E5526BEF2DF00BC2EAF20CC2F5
:10285000EBF20DC2ECF20EC2EDF2DF6A040E0201E1
:10286000D8800F55DF5C19E20A0E236E246A256AB0
:10287000266AEAC21EF0EBC21FF0ECC220F0EDC2E5
:1028800021F0BBEC77F01EC0EAF21FC0EBF220C0D3
:10289000ECF221C0EDF2DF2AE1D7010EE66E070E61
:1028A000E66E0FC2E6FFEAC2E6FFEBC2E6FFECC24D
:1028B000E6FFEDC2E6FFACEC63F0006E070EE15EF2
:1028C0000050040E0901B65D26E10BC254F20CC2A1
:1028D00055F20DC256F20EC257F20FC258F2040E54
:1028E000E66E540EE66E020EE66E320EE66E6FEC8B
:1028F00056F0E552E552E552E552010EE66E580EED
:10290000E66E020EE66E360EE66E6FEC56F0E5529F
:10291000E552E552E5526BEF2DF00BC2EAF20CC224
:10292000EBF20DC2ECF20EC2EDF2DF6A040E020110
:10293000D8800F55DF5C19E20A0E236E246A256ADF
:10294000266AEAC21EF0EBC21FF0ECC220F0EDC214
:1029500021F0BBEC77F01EC0EAF21FC0EBF220C002
:10296000ECF221C0EDF2DF2AE1D7010EE66E070E90
:10297000E66E0FC2E6FFEAC2E6FFEBC2E6FFECC27C
:10298000E6FFEDC2E6FFACEC63F0006E070EE15E21
:102990000050040E0901B65D26E10BC259F20CC2CB
:1029A0005AF20DC25BF20EC25CF20FC25DF2040E6F
:1029B000E66E590EE66E020EE66EB90EE66E6FEC2E
:1029C00056F0E552E552E552E552010EE66E5D0E17
:1029D000E66E020EE66EBD0EE66E6FEC56F0E55248
:1029E000E552E552E5526BEF2DF00BC2EAF20CC254
:1029F000EBF20DC2ECF20EC2EDF2DF6A040E020140
:102A0000D8800F55DF5C19E20A0E236E246A256A0E
:102A1000266AEAC21EF0EBC21FF0ECC220F0EDC243
:102A200021F0BBEC77F01EC0EAF21FC0EBF220C031
:102A3000ECF221C0EDF2DF2AE1D7010EE66E070EBF
:102A4000E66E0FC2E6FFEAC2E6FFEBC2E6FFECC2AB
:102A5000E6FFEDC2E6FFACEC63F0006E070EE15E50
:102A60000050040E0901B65D28E10BC26DF20CC2E4
:102A70006EF20DC26FF20EC270F20FC271F205EC6F
:102A800040F0040EE66E6D0EE66E020EE66E170E58
:102A9000E66E6FEC56F0E552E552E552E552010E56
:102AA000E66E710EE66E020EE66E1B0EE66E6FECC3
:102AB00056F0E552E552E552E5526BEF2DF00BC2B0
:102AC000EAF20CC2EBF20DC2ECF20EC2EDF2DF6ADA
:102AD000040E0201D8800F55DF5C19E20A0E236E46
:102AE000246A256A266AEAC21EF0EBC21FF0ECC215
:102AF00020F0EDC221F0BBEC77F01EC0EAF21FC05F
:102B0000EBF220C0ECF221C0EDF2DF2AE1D7010E9A
:102B1000E66E070EE66E0FC2E6FFEAC2E6FFEBC204
:102B2000E6FFECC2E6FFEDC2E6FFACEC63F0006E40
:102B3000070EE15E0050040E0901B65D28E10BC2EC
:102B400072F20CC273F20DC274F20EC275F20FC2B1
:102B500076F205EC40F0040EE66E720EE66E020EA2
:102B6000E66E1C0EE66E6FEC56F0E552E552E5524D
:102B7000E552010EE66E760EE66E020EE66E200E51
:102B8000E66E6FEC56F0E552E552E552E5526BEF1A
:102B90002DF00BC2EAF20CC2EBF20DC2ECF20EC247
:102BA000EDF2DF6A040E0201D8800F55DF5C19E2F6
:102BB0000A0E236E246A256A266AEAC21EF0EBC258
:102BC0001FF0ECC220F0EDC221F0BBEC77F01EC08C
:102BD000EAF21FC0EBF220C0ECF221C0EDF2DF2AD6
:102BE000E1D7010EE66E070EE66E0FC2E6FFEAC2FF
:102BF000E6FFEBC2E6FFECC2E6FFEDC2E6FFACEC9F
:102C000063F0006E070EE15E0050040E0901B65D30
:102C100001E0B5D00BC2CDF20CC2CEF20DC2CFF2A4
:102C20000EC2D0F20FC2D1F20201CD51CE11CF119E
:102C3000D01106E1100ECD6F270ECE6FCF6BD06B8B
:102C4000CDC21EF0CEC21FF0CFC220F0D0C221F004
:102C500025EC76F01FC004F020C005F021C006F07E
:102C600022C007F0246A400E256E1C0E266E460E0A
:102C7000276E04C01FF005C020F006C021F007C079
:102C800022F0D5EC76F01FC000F020C001F021C08A
:102C900002F022C003F000C0E6FF01C0E6FF02C060
:102CA000E6FF03C0E6FFE3EC41F0E552E552E552F2
:102CB000E5521EC08BF31FC08CF320C08DF321C0E2
:102CC0008EF3040EE66ECD0EE66E020EE66E650E17
:102CD000E66E6FEC56F0E552E552E552E552010E14
:102CE000E66ED10EE66E020EE66E690EE66E6FECD3
:102CF00056F0E552E552E552E552DF6A640EDF5CBC
:102D00002CE2DF50040DF3CFE9FFF4CFEAFFC90E48
:102D1000E926050EEA22EE6AEE6AEE6AEE6ADF50F6
:102D2000040DF3CFE9FFF4CFEAFF000EE9260A0E07
:102D3000EA22EE6AEE6AEE6AEE6ADF50040DF3CF25
:102D4000E9FFF4CFEAFF390EE926040EEA22EE6A23
:102D5000EE6AEE6AEE6ADF2AD1D70301766B776BF3
:102D6000786B796B7E6B7F6B806B816B826B836B17
:102D7000846B856B866B876B886B896B8A6B6BEF5B
:102D80002DF0B20EE96E090EEA6E0201C551EE2475
:102D9000006EC651EE20016EC751EE20026EC85182
:102DA000EE20036E0334000E031809E6D880FF0EF0
:102DB0000054FF0E0154000E0254000E03540CE3A5
:102DC000000E0901E76EB119E8AE02D0B13503D0AB
:102DD000E750D880B15518E3B20EE96E090EEA6EDD
:102DE0000201C551EE24046EC651EE20056EC75196
:102DF000EE20066EC851EE20076E0001800E07140B
:102E000015E10901B13512E3020EB65D0FE1B251D1
:102E10000201C5270901B3510201C6230901B451BA
:102E20000201C7230901B5510201C823C5C2E6FF4B
:102E3000C6C2E6FFCAEC7BF0E552E552E66A070E31
:102E4000E66EE66AC5C2E6FFC6C2E6FFC7C2E6FF97
:102E5000C8C2E6FFACEC63F0006E070EE15E005006
:102E6000040E0901B65D10E105EC40F0040EE66EBB
:102E7000C50EE66E020EE66E0F0EE66E6FEC56F0B5
:102E8000E552E552E552E5526BEF2DF0B20EE96ED8
:102E9000090EEA6E0201C951EE24006ECA51EE20FD
:102EA000016ECB51EE20026ECC51EE20036E033446
:102EB000000E031809E6D880FF0E0054FF0E0154DF
:102EC000000E0254000E03540CE3000E0901E76EDD
:102ED000B119E8AE02D0B13503D0E750D880B15572
:102EE00018E3B20EE96E090EEA6E0201C951EE2432
:102EF000046ECA51EE20056ECB51EE20066ECC5109
:102F0000EE20076E0001800E071415E10901B135AE
:102F100012E3020EB65D0FE1B2510201C9270901A9
:102F2000B3510201CA230901B4510201CB230901A3
:102F3000B5510201CC23C9C2E6FFCAC2E6FFCAEC02
:102F40007BF0E552E552E66A070EE66EE66AC9C214
:102F5000E6FFCAC2E6FFCBC2E6FFCCC2E6FFACEC9E
:102F600063F0006E070EE15E0050040E0901B65DCD
:102F700010E105EC40F0040EE66EC90EE66E020E9E
:102F8000E66E130EE66E6FEC56F0E552E552E55232
:102F9000E5526BEF2DF0DAC2EAF2DBC2EBF2DCC2F3
:102FA000ECF2DDC2EDF2DF6A040E0201D8800F55AB
:102FB000DF5C19E20A0E236E246A256A266AEAC2D9
:102FC0001EF0EBC21FF0ECC220F0EDC221F0BBEC12
:102FD00077F01EC0EAF21FC0EBF220C0ECF221C075
:102FE000EDF2DF2AE1D7E66A070EE66E0FC2E6FFD2
:102FF000EAC2E6FFEBC2E6FFECC2E6FFEDC2E6FF87
:10300000ACEC63F0006E070EE15E0050040E0901A7
:10301000B65D10E10FC22DF2010EE66E2D0EE66ECA
:10302000020EE66E040EE66E6FEC56F0E552E552C7
:10303000E552E5526BEF2DF0BBC200F0016A026A67
:10304000036A0901B2510026B3510122B451022290
:10305000B55103220334000E031809E6D880010E8F
:103060000054000E0154000E0254000E03540BE3F2
:10307000000EE76EB119E8AE02D0B13503D0E750CB
:10308000D880B15514E3BBC204F0056A066A076A2A
:10309000B2510426B3510522B4510622B55107227C
:1030A0000001800E071409E10901B13506E3020EA3
:1030B000B65D03E1B2510201BB270201BB51010A17
:1030C00021E0010A01E03ED0780E0301006F016BA0
:1030D000CD0E026F036B046F056B360E066F010E8B
:1030E000076F360E086F010E096F360E0A6F010E5C
:1030F0000B6F360E0C6F010E0D6F360E0E6F010E3C
:103100000F6F20D0780E0301006F016BF50E026F78
:10311000036B360E046F010E056F360E066F010E3F
:10312000076F360E086F010E096F360E0A6F010E1B
:103130000B6F360E0C6F010E0D6F360E0E6F010EFB
:103140000F6F00D00EC3E6FF0FC3E6FF0CC3E6FF10
:103150000DC3E6FF0AC3E6FF0BC3E6FF08C3E6FFA5
:1031600009C3E6FF06C3E6FF07C3E6FF04C3E6FFA5
:1031700005C3E6FF02C3E6FF03C3E6FF00C3E6FFA5
:1031800001C3E6FFCFEC61F0006E100EE15E00506F
:10319000040E0901B65D0EE1010EE66EBB0EE66E91
:1031A000020EE66E450EE66E6FEC56F0E552E55205
:1031B000E552E5526BEF2DF0C2C200F0016A026ADF
:1031C000036A0901B2510026B3510122B45102220F
:1031D000B55103220334000E031809E6D880010E0E
:1031E0000054000E0154000E0254000E03540BE371
:1031F000000EE76EB119E8AE02D0B13503D0E7504A
:10320000D880B15514E3C2C204F0056A066A076AA1
:10321000B2510426B3510522B4510622B5510722FA
:103220000001800E071409E10901B13506E3020E21
:10323000B65D03E1B2510201C2270201C251010A87
:1032400021E0010A01E03ED0780E0301006F016B1E
:10325000CD0E026F036B046F056B360E066F010E09
:10326000076F360E086F010E096F360E0A6F010EDA
:103270000B6F360E0C6F010E0D6F360E0E6F010EBA
:103280000F6F20D0780E0301006F016BF50E026FF7
:10329000036B360E046F010E056F360E066F010EBE
:1032A000076F360E086F010E096F360E0A6F010E9A
:1032B0000B6F360E0C6F010E0D6F360E0E6F010E7A
:1032C0000F6F00D00EC3E6FF0FC3E6FF0CC3E6FF8F
:1032D0000DC3E6FF0AC3E6FF0BC3E6FF08C3E6FF24
:1032E00009C3E6FF06C3E6FF07C3E6FF04C3E6FF24
:1032F00005C3E6FF02C3E6FF03C3E6FF00C3E6FF24
:1033000001C3E6FFCFEC61F0006E100EE15E0050ED
:10331000040E0901B65D0EE1010EE66EC20EE66E08
:10332000020EE66EC30EE66E6FEC56F0E552E55205
:10333000E552E5526BEF2DF0C3C200F0016A026A5C
:10334000036A0901B2510026B3510122B45102228D
:10335000B55103220334000E031809E6D880010E8C
:103360000054000E0154000E0254000E03540BE3EF
:10337000000EE76EB119E8AE02D0B13503D0E750C8
:10338000D880B15514E3C3C204F0056A066A076A1F
:10339000B2510426B3510522B4510622B551072279
:1033A0000001800E071409E10901B13506E3020EA0
:1033B000B65D03E1B2510201C3270201C351010A04
:1033C00021E0010A01E03ED0780E0301006F016B9D
:1033D000CD0E026F036B046F056B360E066F010E88
:1033E000076F360E086F010E096F360E0A6F010E59
:1033F0000B6F360E0C6F010E0D6F360E0E6F010E39
:103400000F6F20D0780E0301006F016BF50E026F75
:10341000036B360E046F010E056F360E066F010E3C
:10342000076F360E086F010E096F360E0A6F010E18
:103430000B6F360E0C6F010E0D6F360E0E6F010EF8
:103440000F6F00D00EC3E6FF0FC3E6FF0CC3E6FF0D
:103450000DC3E6FF0AC3E6FF0BC3E6FF08C3E6FFA2
:1034600009C3E6FF06C3E6FF07C3E6FF04C3E6FFA2
:1034700005C3E6FF02C3E6FF03C3E6FF00C3E6FFA2
:1034800001C3E6FFCFEC61F0006E100EE15E00506C
:10349000040E0901B65D0EE1010EE66EC30EE66E86
:1034A000020EE66EC40EE66E6FEC56F0E552E55283
:1034B000E552E5526BEF2DF0C4C200F0016A026ADA
:1034C000036A0901B2510026B3510122B45102220C
:1034D000B55103220334000E031809E6D880010E0B
:1034E0000054000E0154000E0254000E03540BE36E
:1034F000000EE76EB119E8AE02D0B13503D0E75047
:10350000D880B15514E3C4C204F0056A066A076A9C
:10351000B2510426B3510522B4510622B5510722F7
:103520000001800E071409E10901B13506E3020E1E
:10353000B65D03E1B2510201C4270201C451010A80
:1035400021E0010A01E03ED0780E0301006F016B1B
:10355000CD0E026F036B046F056B360E066F010E06
:10356000076F360E086F010E096F360E0A6F010ED7
:103570000B6F360E0C6F010E0D6F360E0E6F010EB7
:103580000F6F20D0780E0301006F016BF50E026FF4
:10359000036B360E046F010E056F360E066F010EBB
:1035A000076F360E086F010E096F360E0A6F010E97
:1035B0000B6F360E0C6F010E0D6F360E0E6F010E77
:1035C0000F6F00D00EC3E6FF0FC3E6FF0CC3E6FF8C
:1035D0000DC3E6FF0AC3E6FF0BC3E6FF08C3E6FF21
:1035E00009C3E6FF06C3E6FF07C3E6FF04C3E6FF21
:1035F00005C3E6FF02C3E6FF03C3E6FF00C3E6FF21
:1036000001C3E6FFCFEC61F0006E100EE15E0050EA
:10361000040E0901B65D0EE1010EE66EC40EE66E03
:10362000020EE66EC50EE66E6FEC56F0E552E55200
:10363000E552E5526BEF2DF0BDC200F0016A026A5F
:10364000036A0901B2510026B3510122B45102228A
:10365000B55103220334000E031809E6D880010E89
:103660000054000E0154000E0254000E03540BE3EC
:10367000000EE76EB119E8AE02D0B13503D0E750C5
:10368000D880B15514E3BDC204F0056A066A076A22
:10369000B2510426B3510522B4510622B551072276
:1036A0000001800E071409E10901B13506E3020E9D
:1036B000B65D03E1B2510201BD270201BD51010A0D
:1036C0001FE0010A01E039D0320E0301006F016BE7
:1036D000D70E026F036BFA0E046F056B090E066FAF
:1036E000010E076FB40E086F096B090E0A6F010E09
:1036F0000B6FDC0E0C6F0D6BFA0E0E6F0F6B1DD087
:10370000550E0301006F016BFA0E026F036B090E79
:10371000046F010E056FB40E066F076B090E086F7C
:10372000010E096FDC0E0A6F0B6BFA0E0C6F0D6B3E
:10373000360E0E6F010E0F6F00D00EC3E6FF0FC3E3
:10374000E6FF0CC3E6FF0DC3E6FF0AC3E6FF0BC3AB
:10375000E6FF08C3E6FF09C3E6FF06C3E6FF07C3AB
:10376000E6FF04C3E6FF05C3E6FF02C3E6FF03C3AB
:10377000E6FF00C3E6FF01C3E6FFCFEC61F0006E99
:10378000100EE15E0050040E0901B65D0EE1010E5F
:10379000E66EBD0EE66E020EE66E460EE66E6FEC4F
:1037A00056F0E552E552E552E5526BEF2DF0C0C2FE
:1037B00000F0016A026A036A0901B2510026B3519E
:1037C0000122B4510222B55103220334000E031822
:1037D00009E6D880010E0054000E0154000E025478
:1037E000000E03540BE3000EE76EB119E8AE02D0F1
:1037F000B13503D0E750D880B15514E3C0C204F00E
:10380000056A066A076AB2510426B3510522B4510B
:103810000622B55107220001800E071409E10901B3
:10382000B13506E3020EB65D03E1B2510201C027D5
:103830000201C051010A1FE0010A01E039D0320E35
:103840000301006F016BD70E026F036BFA0E046F5A
:10385000056B090E066F010E076FB40E086F096B3A
:10386000090E0A6F010E0B6FDC0E0C6F0D6BFA0E5A
:103870000E6F0F6B1DD0550E0301006F016BFA0E1A
:10388000026F036B090E046F010E056FB40E066F15
:10389000076B090E086F010E096FDC0E0A6F0B6BC8
:1038A000FA0E0C6F0D6B360E0E6F010E0F6F00D0FF
:1038B0000EC3E6FF0FC3E6FF0CC3E6FF0DC3E6FF32
:1038C0000AC3E6FF0BC3E6FF08C3E6FF09C3E6FF32
:1038D00006C3E6FF07C3E6FF04C3E6FF05C3E6FF32
:1038E00002C3E6FF03C3E6FF00C3E6FF01C3E6FF32
:1038F000CFEC61F0006E100EE15E0050040E090185
:10390000B65D0EE1010EE66EC00EE66E020EE66ECC
:10391000B30EE66E6FEC56F0E552E552E552E55215
:103920006BEF2DF0BCC200F0016A026A036A090164
:10393000B2510026B3510122B4510222B5510322E3
:103940000334000E031809E6D880010E0054000E5F
:103950000154000E0254000E03540BE3000EE76EF8
:10396000B119E8AE02D0B13503D0E750D880B155D7
:1039700014E3BCC204F0056A066A076AB251042661
:10398000B3510522B4510622B55107220001800E21
:10399000071409E10901B13506E3020EB65D03E142
:1039A000B2510201BC270201BC51010A68E0020ABF
:1039B00045E0010A23E0020A01E080D0500E030135
:1039C000006F016B090E026F010E036FB40E046FDE
:1039D000056B180E066F010E076F0E0E086F010EB5
:1039E000096F360E0A6F010E0B6F360E0C6F010E4B
:1039F0000D6F360E0E6F010E0F6F60D0BE0E0301FD
:103A0000006F016BF00E026F036B360E046F010E38
:103A1000056F360E066F010E076F360E086F010E2A
:103A2000096F360E0A6F010E0B6F360E0C6F010E0A
:103A30000D6F360E0E6F010E0F6F40D0F00E0301AA
:103A4000006F016B360E026F010E036F360E046FAE
:103A5000010E056F360E066F010E076F360E086FEA
:103A6000010E096F360E0A6F010E0B6F360E0C6FCA
:103A7000010E0D6F360E0E6F010E0F6F1FD0690E07
:103A80000301006F016BDC0E026F036B1D0E046FF0
:103A9000010E056F090E066F010E076FC80E086F45
:103AA000096B360E0A6F010E0B6F360E0C6F010E8E
:103AB0000D6F360E0E6F010E0F6F00D00EC3E6FFB6
:103AC0000FC3E6FF0CC3E6FF0DC3E6FF0AC3E6FF24
:103AD0000BC3E6FF08C3E6FF09C3E6FF06C3E6FF24
:103AE00007C3E6FF04C3E6FF05C3E6FF02C3E6FF24
:103AF00003C3E6FF00C3E6FF01C3E6FFCFEC61F0BE
:103B0000006E100EE15E0050040E0901B65D0EE17C
:103B1000010EE66EBC0EE66E020EE66E470EE66E17
:103B20006FEC56F0E552E552E552E5526BEF2DF0A1
:103B3000B8C200F0016A026A036A0901B2510026A4
:103B4000B3510122B4510222B55103220334000EB5
:103B5000031809E6D880010E0054000E0154000E2F
:103B60000254000E03540BE3000EE76EB119E8AEE9
:103B700002D0B13503D0E750D880B15514E3B8C2B4
:103B800004F0056A066A076AB2510426B351052299
:103B9000B4510622B55107220001800E071409E135
:103BA0000901B13506E3020EB65D03E1B25102012F
:103BB000B8270201B851010A21E0010A01E03ED014
:103BC000780E0301006F016BCD0E026F036B046F63
:103BD000056B360E066F010E076F360E086F010E6D
:103BE000096F360E0A6F010E0B6F360E0C6F010E49
:103BF0000D6F360E0E6F010E0F6F20D0780E030181
:103C0000006F016BF50E026F036B360E046F010E31
:103C1000056F360E066F010E076F360E086F010E28
:103C2000096F360E0A6F010E0B6F360E0C6F010E08
:103C30000D6F360E0E6F010E0F6F00D00EC3E6FF34
:103C40000FC3E6FF0CC3E6FF0DC3E6FF0AC3E6FFA2
:103C50000BC3E6FF08C3E6FF09C3E6FF06C3E6FFA2
:103C600007C3E6FF04C3E6FF05C3E6FF02C3E6FFA2
:103C700003C3E6FF00C3E6FF01C3E6FFCFEC61F03C
:103C8000006E100EE15E0050040E0901B65D0EE1FB
:103C9000010EE66EB80EE66E020EE66E310EE66EB0
:103CA0006FEC56F0E552E552E552E5526BEF2DF020
:103CB000C1C200F0016A026A036A0901B25100261A
:103CC000B3510122B4510222B55103220334000E34
:103CD000031809E6D880010E0054000E0154000EAE
:103CE0000254000E03540BE3000EE76EB119E8AE68
:103CF00002D0B13503D0E750D880B15514E3C1C22A
:103D000004F0056A066A076AB2510426B351052217
:103D1000B4510622B55107220001800E071409E1B3
:103D20000901B13506E3020EB65D03E1B2510201AD
:103D3000C1270201C151010A21E0010A01E03ED080
:103D4000780E0301006F016BCD0E026F036B046FE1
:103D5000056B360E066F010E076F360E086F010EEB
:103D6000096F360E0A6F010E0B6F360E0C6F010EC7
:103D70000D6F360E0E6F010E0F6F20D0780E0301FF
:103D8000006F016BF50E026F036B360E046F010EB0
:103D9000056F360E066F010E076F360E086F010EA7
:103DA000096F360E0A6F010E0B6F360E0C6F010E87
:103DB0000D6F360E0E6F010E0F6F00D00EC3E6FFB3
:103DC0000FC3E6FF0CC3E6FF0DC3E6FF0AC3E6FF21
:103DD0000BC3E6FF08C3E6FF09C3E6FF06C3E6FF21
:103DE00007C3E6FF04C3E6FF05C3E6FF02C3E6FF21
:103DF00003C3E6FF00C3E6FF01C3E6FFCFEC61F0BB
:103E0000006E100EE15E0050040E0901B65D0EE179
:103E1000010EE66EC10EE66E020EE66EBE0EE66E98
:103E20006FEC56F0E552E552E552E5526BEF2DF09E
:103E3000F2C200F0016A026A036A0901B251002667
:103E4000B3510122B4510222B55103220334000EB2
:103E5000031809E6D880030E0054000E0154000E2A
:103E60000254000E03540BE3000EE76EB119E8AEE6
:103E700002D0B13503D0E750D880B15514E3F2C277
:103E800004F0056A066A076AB2510426B351052296
:103E9000B4510622B55107220001800E071409E132
:103EA0000901B13506E3020EB65D03E1B25102012C
:103EB000F2270201F251030A5DE0030A41E0020A1F
:103EC00021E0030A01E074D0690E0301006F016B69
:103ED000DC0E026F036BF00E046F056B050E066FB0
:103EE000076B3B0E086F010E096F4A0E0A6F010E39
:103EF0000B6F540E0C6F010E0D6F4F0E0E6F010EF7
:103F00000F6F56D0690E0301006F016BDC0E026F5C
:103F1000036BF00E046F056B050E066F076B3B0E0F
:103F2000086F010E096F4A0E0A6F010E0B6F590ED2
:103F30000C6F010E0D6F4F0E0E6F010E0F6F38D00C
:103F4000690E0301006F016BDC0E026F036BF00E54
:103F5000046F056B050E066F076B3B0E086F010EB5
:103F6000096F780E0A6F0B6BCD0E0C6F0D6B0E6F19
:103F70000F6B1ED0690E0301006F016BDC0E026F28
:103F8000036BF00E046F056B050E066F076B3B0E9F
:103F9000086F010E096F4A0E0A6F010E0B6F680E53
:103FA0000C6F010E0D6F4F0E0E6F010E0F6F00D0D4
:103FB0000EC3E6FF0FC3E6FF0CC3E6FF0DC3E6FF2B
:103FC0000AC3E6FF0BC3E6FF08C3E6FF09C3E6FF2B
:103FD00006C3E6FF07C3E6FF04C3E6FF05C3E6FF2B
:103FE00002C3E6FF03C3E6FF00C3E6FF01C3E6FF2B
:103FF000CFEC61F0006E100EE15E0050040E09017E
:10400000B65D0EE1010EE66EF20EE66E020EE66E93
:10401000210EE66E6FEC56F0E552E552E552E552A0
:104020006BEF2DF00BC2EAF20CC2EBF20DC2ECF218
:104030000EC2EDF2DF6A040E0201D8800F55DF5C7C
:1040400019E20A0E236E246A256A266AEAC21EF065
:10405000EBC21FF0ECC220F0EDC221F0BBEC77F018
:104060001EC0EAF21FC0EBF220C0ECF221C0EDF25C
:10407000DF2AE1D7010EE66E070EE66E0FC2E6FFFD
:10408000EAC2E6FFEBC2E6FFECC2E6FFEDC2E6FFE6
:10409000ACEC63F0006E070EE15E0050040E090107
:1040A000B65D26E10BC21FF20CC220F20DC221F256
:1040B0000EC222F20FC223F2040EE66E1F0EE66E4F
:1040C000020EE66E220EE66E6FEC56F0E552E552F9
:1040D000E552E552010EE66E230EE66E020EE66E26
:1040E000260EE66E6FEC56F0E552E552E552E552CB
:1040F0006BEF2DF00BC2EAF20CC2EBF20DC2ECF248
:104100000EC2EDF2DF6A040E0201D8800F55DF5CAB
:1041100019E20A0E236E246A256A266AEAC21EF094
:10412000EBC21FF0ECC220F0EDC221F0BBEC77F047
:104130001EC0EAF21FC0EBF220C0ECF221C0EDF28B
:10414000DF2AE1D7010EE66E070EE66E0FC2E6FF2C
:10415000EAC2E6FFEBC2E6FFECC2E6FFEDC2E6FF15
:10416000ACEC63F0006E070EE15E0050040E090136
:10417000B65D51E10BC290F20CC291F20DC292F207
:104180000EC293F20FC294F290C21EF091C21FF0C1
:1041900092C220F093C221F025EC76F01FC000F00F
:1041A00020C001F021C002F022C003F0246A400EBA
:1041B000256E1C0E266E460E276E00C01FF001C035
:1041C00020F002C021F003C022F0D5EC76F01FC031
:1041D0003DF320C03EF321C03FF322C040F3040E64
:1041E000E66E900EE66E020EE66E4C0EE66E6FEC1C
:1041F00056F0E552E552E552E552010EE66E940E98
:10420000E66E020EE66E500EE66E6FEC56F0E5526C
:10421000E552E552E5526BEF2DF00BC2EAF20CC20B
:10422000EBF20DC2ECF20EC2EDF2DF6A040E0201F7
:10423000D8800F55DF5C19E20A0E236E246A256AC6
:10424000266AEAC21EF0EBC21FF0ECC220F0EDC2FB
:1042500021F0BBEC77F01EC0EAF21FC0EBF220C0E9
:10426000ECF221C0EDF2DF2AE1D7010EE66E070E77
:10427000E66E0FC2E6FFEAC2E6FFEBC2E6FFECC263
:10428000E6FFEDC2E6FFACEC63F0006E070EE15E08
:104290000050040E0901B65D51E10BC295F20CC24B
:1042A00096F20DC297F20EC298F20FC299F295C221
:1042B0001EF096C21FF097C220F098C221F025ECA4
:1042C00076F01FC000F020C001F021C002F022C033
:1042D00003F0246A400E256E1C0E266E460E276ED5
:1042E00000C01FF001C020F002C021F003C022F086
:1042F000D5EC76F01FC04DF320C04EF321C04FF334
:1043000022C050F3040EE66E950EE66E020EE66EC7
:10431000AE0EE66E6FEC56F0E552E552E552E55210
:10432000010EE66E990EE66E020EE66EB20EE66EB7
:104330006FEC56F0E552E552E552E5526BEF2DF089
:104340000BC2EAF20CC2EBF20DC2ECF20EC2EDF2BD
:10435000DF6A040E0201D8800F55DF5C19E20A0EF5
:10436000236E246A256A266AEAC21EF0EBC21FF099
:10437000ECC220F0EDC221F0BBEC77F01EC0EAF2F7
:104380001FC0EBF220C0ECF221C0EDF2DF2AE1D732
:10439000010EE66E070EE66E0FC2E6FFEAC2E6FF0A
:1043A000EBC2E6FFECC2E6FFEDC2E6FFACEC63F069
:1043B000006E070EE15E0050040E0901B65D26E1B5
:1043C0000BC29AF20CC29BF20DC29CF20EC29DF27D
:1043D0000FC29EF2040EE66E9A0EE66E020EE66EB6
:1043E000510EE66E6FEC56F0E552E552E552E5529D
:1043F000010EE66E9E0EE66E020EE66E550EE66E3F
:104400006FEC56F0E552E552E552E5526BEF2DF0B8
:104410000BC2EAF20CC2EBF20DC2ECF20EC2EDF2EC
:10442000DF6A040E0201D8800F55DF5C19E20A0E24
:10443000236E246A256A266AEAC21EF0EBC21FF0C8
:10444000ECC220F0EDC221F0BBEC77F01EC0EAF226
:104450001FC0EBF220C0ECF221C0EDF2DF2AE1D761
:10446000010EE66E070EE66E0FC2E6FFEAC2E6FF39
:10447000EBC2E6FFECC2E6FFEDC2E6FFACEC63F098
:10448000006E070EE15E0050040E0901B65D26E1E4
:104490000BC2A9F20CC2AAF20DC2ABF20EC2ACF270
:1044A0000FC2ADF2040EE66EA90EE66E020EE66EC7
:1044B000560EE66E6FEC56F0E552E552E552E552C7
:1044C000010EE66EAD0EE66E020EE66E5A0EE66E5A
:1044D0006FEC56F0E552E552E552E5526BEF2DF0E8
:1044E0000BC2EAF20CC2EBF20DC2ECF20EC2EDF21C
:1044F000DF6A040E0201D8800F55DF5C19E20A0E54
:10450000236E246A256A266AEAC21EF0EBC21FF0F7
:10451000ECC220F0EDC221F0BBEC77F01EC0EAF255
:104520001FC0EBF220C0ECF221C0EDF2DF2AE1D790
:10453000010EE66E070EE66E0FC2E6FFEAC2E6FF68
:10454000EBC2E6FFECC2E6FFEDC2E6FFACEC63F0C7
:10455000006E070EE15E0050040E0901B65D26E113
:104560000BC29FF20CC2A0F20DC2A1F20EC2A2F2C7
:104570000FC2A3F2040EE66E9F0EE66E020EE66E0A
:104580009A0EE66E6FEC56F0E552E552E552E552B2
:10459000010EE66EA30EE66E020EE66E9E0EE66E4F
:1045A0006FEC56F0E552E552E552E5526BEF2DF017
:1045B0000BC2EAF20CC2EBF20DC2ECF20EC2EDF24B
:1045C000DF6A040E0201D8800F55DF5C19E20A0E83
:1045D000236E246A256A266AEAC21EF0EBC21FF027
:1045E000ECC220F0EDC221F0BBEC77F01EC0EAF285
:1045F0001FC0EBF220C0ECF221C0EDF2DF2AE1D7C0
:10460000010EE66E070EE66E0FC2E6FFEAC2E6FF97
:10461000EBC2E6FFECC2E6FFEDC2E6FFACEC63F0F6
:10462000006E070EE15E0050040E0901B65D26E142
:104630000BC2AEF20CC2AFF20DC2B0F20EC2B1F2BA
:104640000FC2B2F2040EE66EAE0EE66E020EE66E1B
:104650005B0EE66E6FEC56F0E552E552E552E55220
:10466000010EE66EB20EE66E020EE66E5F0EE66EAE
:104670006FEC56F0E552E552E552E5526BEF2DF046
:104680000BC2EAF20CC2EBF20DC2ECF20EC2EDF27A
:10469000DF6A040E0201D8800F55DF5C19E20A0EB2
:1046A000236E246A256A266AEAC21EF0EBC21FF056
:1046B000ECC220F0EDC221F0BBEC77F01EC0EAF2B4
:1046C0001FC0EBF220C0ECF221C0EDF2DF2AE1D7EF
:1046D000010EE66E070EE66E0FC2E6FFEAC2E6FFC7
:1046E000EBC2E6FFECC2E6FFEDC2E6FFACEC63F026
:1046F000006E070EE15E0050040E0901B65D26E172
:104700000BC2B3F20CC2B4F20DC2B5F20EC2B6F2D5
:104710000FC2B7F2040EE66EB30EE66E020EE66E40
:10472000600EE66E6FEC56F0E552E552E552E5524A
:10473000010EE66EB70EE66E020EE66E640EE66ED3
:104740006FEC56F0E552E552E552E5526BEF2DF075
:104750000BC2EAF20CC2EBF20DC2ECF20EC2EDF2A9
:10476000DF6A040E0201D8800F55DF5C19E20A0EE1
:10477000236E246A256A266AEAC21EF0EBC21FF085
:10478000ECC220F0EDC221F0BBEC77F01EC0EAF2E3
:104790001FC0EBF220C0ECF221C0EDF2DF2AE1D71E
:1047A000010EE66E070EE66E0FC2E6FFEAC2E6FFF6
:1047B000EBC2E6FFECC2E6FFEDC2E6FFACEC63F055
:1047C000006E070EE15E0050040E0901B65D26E1A1
:1047D0000BC277F20CC278F20DC279F20EC27AF2F5
:1047E0000FC27BF2040EE66E770EE66E020EE66EE8
:1047F0003B0EE66E6FEC56F0E552E552E552E5529F
:10480000010EE66E7B0EE66E020EE66E3F0EE66E63
:104810006FEC56F0E552E552E552E5526BEF2DF0A4
:104820000BC2EAF20CC2EBF20DC2ECF20EC2EDF2D8
:10483000DF6A040E0201D8800F55DF5C19E20A0E10
:10484000236E246A256A266AEAC21EF0EBC21FF0B4
:10485000ECC220F0EDC221F0BBEC77F01EC0EAF212
:104860001FC0EBF220C0ECF221C0EDF2DF2AE1D74D
:10487000010EE66E070EE66E0FC2E6FFEAC2E6FF25
:10488000EBC2E6FFECC2E6FFEDC2E6FFACEC63F084
:10489000006E070EE15E0050040E0901B65D26E1D0
:1048A0000BC27CF20CC27DF20DC27EF20EC27FF210
:1048B0000FC280F2040EE66E7C0EE66E020EE66E0D
:1048C000400EE66E6FEC56F0E552E552E552E552C9
:1048D000010EE66E800EE66E020EE66E440EE66E89
:1048E0006FEC56F0E552E552E552E5526BEF2DF0D4
:1048F000F3C200F0016A026A036A0901B25100269C
:10490000B3510122B4510222B55103220334000EE7
:10491000031809E6D880030E0054000E0154000E5F
:104920000254000E03540BE3000EE76EB119E8AE1B
:1049300002D0B13503D0E750D880B15514E3F3C2AB
:1049400004F0056A066A076AB2510426B3510522CB
:10495000B4510622B55107220001800E071409E167
:104960000901B13506E3020EB65D03E1B251020161
:10497000F3270201F351030A5DE0030A41E0020A52
:1049800021E0030A01E074D0690E0301006F016B9E
:10499000DC0E026F036BF00E046F056B0A0E066FE0
:1049A000076B3B0E086F010E096F4A0E0A6F010E6E
:1049B0000B6F540E0C6F010E0D6F4F0E0E6F010E2C
:1049C0000F6F56D0690E0301006F016BDC0E026F92
:1049D000036BF00E046F056B0A0E066F076B3B0E40
:1049E000086F010E096F4A0E0A6F010E0B6F590E08
:1049F0000C6F010E0D6F4F0E0E6F010E0F6F38D042
:104A0000690E0301006F016BDC0E026F036BF00E89
:104A1000046F056B0A0E066F076B3B0E086F010EE5
:104A2000096F780E0A6F0B6BCD0E0C6F0D6B0E6F4E
:104A30000F6B1ED0690E0301006F016BDC0E026F5D
:104A4000036BF00E046F056B0A0E066F076B3B0ECF
:104A5000086F010E096F4A0E0A6F010E0B6F680E88
:104A60000C6F010E0D6F4F0E0E6F010E0F6F00D009
:104A70000EC3E6FF0FC3E6FF0CC3E6FF0DC3E6FF60
:104A80000AC3E6FF0BC3E6FF08C3E6FF09C3E6FF60
:104A900006C3E6FF07C3E6FF04C3E6FF05C3E6FF60
:104AA00002C3E6FF03C3E6FF00C3E6FF01C3E6FF60
:104AB000CFEC61F0006E100EE15E0050040E0901B3
:104AC000B65D0EE1010EE66EF30EE66E020EE66EC8
:104AD000270EE66E6FEC56F0E552E552E552E552D0
:104AE0006BEF2DF00BC2EAF20CC2EBF20DC2ECF24E
:104AF0000EC2EDF2DF6A040E0201D8800F55DF5CB2
:104B000019E20A0E236E246A256A266AEAC21EF09A
:104B1000EBC21FF0ECC220F0EDC221F0BBEC77F04D
:104B20001EC0EAF21FC0EBF220C0ECF221C0EDF291
:104B3000DF2AE1D7010EE66E070EE66E0FC2E6FF32
:104B4000EAC2E6FFEBC2E6FFECC2E6FFEDC2E6FF1B
:104B5000ACEC63F0006E070EE15E0050040E09013C
:104B6000B65D26E10BC224F20CC225F20DC226F27C
:104B70000EC227F20FC228F2040EE66E240EE66E75
:104B8000020EE66E280EE66E6FEC56F0E552E55228
:104B9000E552E552010EE66E280EE66E020EE66E56
:104BA0002C0EE66E6FEC56F0E552E552E552E552FA
:104BB0006BEF2DF0030122514EE1030E355D32E122
:104BC0002FC300F030C301F0026A036A00C0E6FFA1
:104BD00001C0E6FF02C0E6FF03C0E6FF030EE66E7B
:104BE00024EC3FF0046E050EE15E04501EC02FF36E
:104BF0001FC030F3030EE66E080EE66E2FC300F002
:104C000030C301F0026A036A00C0E6FF01C0E6FF9C
:104C100002C0E6FF03C0E6FF06EC6BF0046E060E72
:104C2000E15E0450030EE66E080EE66E2FC300F040
:104C300030C301F0026A036A00C0E6FF01C0E6FF6C
:104C400002C0E6FF03C0E6FF06EC6BF0046E060E42
:104C5000E15E045035D0030E355D1AE133C300F038
:104C600034C301F0026A036A00C0E6FF01C0E6FF38
:104C700002C0E6FF03C0E6FF030EE66E24EC3FF041
:104C8000046E050EE15E04501EC033F31FC034F302
:104C9000030EE66E080EE66E33C300F034C301F077
:104CA000026A036A00C0E6FF01C0E6FF02C0E6FF39
:104CB00003C0E6FF06EC6BF0046E060EE15E0450E6
:104CC0000301356B6BEF2DF00BC2EAF20CC2EBF275
:104CD0000DC2ECF20EC2EDF2DF6A040E0201D880C2
:104CE0000F55DF5C19E20A0E236E246A256A266AD4
:104CF000EAC21EF0EBC21FF0ECC220F0EDC221F0C0
:104D0000BBEC77F01EC0EAF21FC0EBF220C0ECF261
:104D100021C0EDF2DF2AE1D7010EE66E070EE66E46
:104D20000FC2E6FFEAC2E6FFEBC2E6FFECC2E6FF17
:104D3000EDC2E6FFACEC63F0006E070EE15E0050E2
:104D4000040E0901B65D26E10BC236F20CC237F241
:104D50000DC238F20EC239F20FC23AF2040EE66EFC
:104D6000360EE66E020EE66E860EE66E6FEC56F0BE
:104D7000E552E552E552E552010EE66E3A0EE66E58
:104D8000020EE66E8A0EE66E6FEC56F0E552E552C4
:104D9000E552E5526BEF2DF00BC2EAF20CC2EBF2DA
:104DA0000DC2ECF20EC2EDF2DF6A040E0201D880F1
:104DB0000F55DF5C19E20A0E236E246A256A266A03
:104DC000EAC21EF0EBC21FF0ECC220F0EDC221F0EF
:104DD000BBEC77F01EC0EAF21FC0EBF220C0ECF291
:104DE00021C0EDF2DF2AE1D7010EE66E070EE66E76
:104DF0000FC2E6FFEAC2E6FFEBC2E6FFECC2E6FF47
:104E0000EDC2E6FFACEC63F0006E070EE15E005011
:104E1000040E0901B65D26E10BC23BF20CC23CF266
:104E20000DC23DF20EC23EF20FC23FF2040EE66E1C
:104E30003B0EE66E020EE66E8B0EE66E6FEC56F0E3
:104E4000E552E552E552E552010EE66E3F0EE66E82
:104E5000020EE66E8F0EE66E6FEC56F0E552E552EE
:104E6000E552E5526BEF2DF00BC2EAF20CC2EBF209
:104E70000DC2ECF20EC2EDF2DF6A040E0201D88020
:104E80000F55DF5C19E20A0E236E246A256A266A32
:104E9000EAC21EF0EBC21FF0ECC220F0EDC221F01E
:104EA000BBEC77F01EC0EAF21FC0EBF220C0ECF2C0
:104EB00021C0EDF2DF2AE1D7010EE66E070EE66EA5
:104EC0000FC2E6FFEAC2E6FFEBC2E6FFECC2E6FF76
:104ED000EDC2E6FFACEC63F0006E070EE15E005041
:104EE000040E0901B65D26E10BC240F20CC241F28C
:104EF0000DC242F20EC243F20FC244F2040EE66E3D
:104F0000400EE66E020EE66E950EE66E6FEC56F003
:104F1000E552E552E552E552010EE66E440EE66EAC
:104F2000020EE66E990EE66E6FEC56F0E552E55213
:104F3000E552E5526BEF2DF00BC2EAF20CC2EBF238
:104F40000DC2ECF20EC2EDF2DF6A040E0201D8804F
:104F50000F55DF5C19E20A0E236E246A256A266A61
:104F6000EAC21EF0EBC21FF0ECC220F0EDC221F04D
:104F7000BBEC77F01EC0EAF21FC0EBF220C0ECF2EF
:104F800021C0EDF2DF2AE1D7010EE66E070EE66ED4
:104F90000FC2E6FFEAC2E6FFEBC2E6FFECC2E6FFA5
:104FA000EDC2E6FFACEC63F0006E070EE15E005070
:104FB000040E0901B65D26E10BC2A4F20CC2A5F2F3
:104FC0000DC2A6F20EC2A7F20FC2A8F2040EE66E40
:104FD000A40EE66E020EE66E900EE66E6FEC56F0D4
:104FE000E552E552E552E552010EE66EA80EE66E78
:104FF000020EE66E940EE66E6FEC56F0E552E55248
:10500000E552E5526BEF2DF0B20EE96E090EEA6E35
:1050100002012E51EE24006E2F51EE20016E305110
:10502000EE20026E3151EE20036E0334000E0318A1
:1050300009E6D880FF0E0054FF0E0154000E025402
:10504000000E03540CE3000E0901E76EB119E8AE3F
:1050500002D0B13503D0E750D880B15518E3B20E75
:10506000E96E090EEA6E02012E51EE24046E2F51F4
:10507000EE20056E3051EE20066E3151EE20076EA7
:105080000001800E071415E10901B13512E3020E8B
:10509000B65D0FE1B25102012E270901B3510201A1
:1050A0002F230901B451020130230901B551020136
:1050B00031232EC2E6FF2FC2E6FF16EC7CF0E5524C
:1050C000E552E66A070EE66EE66A2EC2E6FF2FC2DA
:1050D000E6FF30C2E6FF31C2E6FFACEC63F0006EE3
:1050E000070EE15E0050040E0901B65D10E1040EEA
:1050F000E66E2E0EE66E020EE66E7C0EE66E6FEC2F
:1051000056F0E552E552E552E552F4EC40F06BEF13
:105110002DF0B20EE96E090EEA6E02013251EE2454
:10512000006E3351EE20016E3451EE20026E355187
:10513000EE20036E0334000E031809E6D880FF0E3C
:105140000054FF0E0154000E0254000E03540CE3F1
:10515000000E0901E76EB119E8AE02D0B13503D0F7
:10516000E750D880B15518E3B20EE96E090EEA6E29
:1051700002013251EE24046E3351EE20056E34519B
:10518000EE20066E3551EE20076E0001800E0714EA
:1051900015E10901B13512E3020EB65D0FE1B2511E
:1051A000020132270901B351020133230901B4512D
:1051B000020134230901B5510201352332C2E6FF51
:1051C00033C2E6FF16EC7CF0E552E552E66A070EC4
:1051D000E66EE66A32C2E6FF33C2E6FF34C2E6FF9D
:1051E00035C2E6FFACEC63F0006E070EE15E0050E6
:1051F000040E0901B65D10E1F4EC40F0040EE66E19
:10520000320EE66E020EE66E810EE66E6FEC56F022
:10521000E552E552E552E5526BEF2DF00BC2EAF292
:105220000CC2EBF20DC2ECF20EC2EDF2DF6A040E1C
:105230000201D8800F55DF5C19E20A0E236E246A42
:10524000256A266AEAC21EF0EBC21FF0ECC220F00B
:10525000EDC221F0BBEC77F01EC0EAF21FC0EBF20A
:1052600020C0ECF221C0EDF2DF2AE1D7010EE66E9C
:10527000070EE66E0FC2E6FFEAC2E6FFEBC2E6FFEC
:10528000ECC2E6FFEDC2E6FFACEC63F0006E070E89
:10529000E15E0050040E0901B65D26E10BC286F204
:1052A0000CC287F20DC288F20EC289F20FC28AF2D6
:1052B000040EE66E860EE66E020EE66EA40EE66E36
:1052C0006FEC56F0E552E552E552E552010EE66EFE
:1052D0008A0EE66E020EE66EA80EE66E6FEC56F0D3
:1052E000E552E552E552E552F6D30BC2EAF20CC2A2
:1052F000EBF20DC2ECF20EC2EDF2DF6A040E020117
:10530000D8800F55DF5C19E20A0E236E246A256AE5
:10531000266AEAC21EF0EBC21FF0ECC220F0EDC21A
:1053200021F0BBEC77F01EC0EAF21FC0EBF220C008
:10533000ECF221C0EDF2DF2AE1D7010EE66E070E96
:10534000E66E0FC2E6FFEAC2E6FFEBC2E6FFECC282
:10535000E6FFEDC2E6FFACEC63F0006E070EE15E27
:105360000050040E0901B65D26E10BC28BF20CC29F
:105370008CF20DC28DF20EC28EF20FC28FF2040EAD
:10538000E66E8B0EE66E020EE66E9F0EE66E6FEC1C
:1053900056F0E552E552E552E552010EE66E8F0EEB
:1053A000E66E020EE66EA30EE66E6FEC56F0E55268
:1053B000E552E552E5528FD30BC2EAF20CC2EBF292
:1053C0000DC2ECF20EC2EDF2DF6A040E0201D880CB
:1053D0000F55DF5C19E20A0E236E246A256A266ADD
:1053E000EAC21EF0EBC21FF0ECC220F0EDC221F0C9
:1053F000BBEC77F01EC0EAF21FC0EBF220C0ECF26B
:1054000021C0EDF2DF2AE1D7010EE66E070EE66E4F
:105410000FC2E6FFEAC2E6FFEBC2E6FFECC2E6FF20
:10542000EDC2E6FFACEC63F0006E070EE15E0050EB
:10543000040E0901B65D26E10BC281F20CC282F2B4
:105440000DC283F20EC284F20FC285F2040EE66E24
:10545000810EE66E020EE66EA90EE66E6FEC56F059
:10546000E552E552E552E552010EE66E850EE66E16
:10547000020EE66EC60EE66E6FEC56F0E552E55291
:10548000E552E55228D3F5C200F0016A026A036AC8
:105490000901B2510026B3510122B4510222B55183
:1054A00003220334000E031809E6D880030E0054CB
:1054B000000E0154000E0254000E03540BE3000EC4
:1054C000E76EB119E8AE02D0B13503D0E750D8800D
:1054D000B15514E3F5C204F0056A066A076AB251D1
:1054E0000426B3510522B4510622B551072200010A
:1054F000800E071409E10901B13506E3020EB65D1D
:1055000003E1B2510201F5270201F551030A5DE002
:10551000030A41E0020A21E0030A01E074D0690EA7
:105520000301006F016BDC0E026F036BF00E046F62
:10553000056B140E066F076B3B0E086F010E096FAB
:105540004A0E0A6F010E0B6F540E0C6F010E0D6F99
:105550004F0E0E6F010E0F6F56D0690E0301006FD4
:10556000016BDC0E026F036BF00E046F056B140E03
:10557000066F076B3B0E086F010E096F4A0E0A6F2C
:10558000010E0B6F590E0C6F010E0D6F4F0E0E6F4B
:10559000010E0F6F38D0690E0301006F016BDC0E36
:1055A000026F036BF00E046F056B140E066F076B32
:1055B0003B0E086F010E096F780E0A6F0B6BCD0E54
:1055C0000C6F0D6B0E6F0F6B1ED0690E0301006F19
:1055D000016BDC0E026F036BF00E046F056B140E93
:1055E000066F076B3B0E086F010E096F4A0E0A6FBC
:1055F000010E0B6F680E0C6F010E0D6F4F0E0E6FCC
:10560000010E0F6F00D00EC3E6FF0FC3E6FF0CC301
:10561000E6FF0DC3E6FF0AC3E6FF0BC3E6FF08C3C0
:10562000E6FF09C3E6FF06C3E6FF07C3E6FF04C3C0
:10563000E6FF05C3E6FF02C3E6FF03C3E6FF00C3C0
:10564000E6FF01C3E6FFCFEC61F0006E100EE15EF5
:105650000050040E0901B65D0EE1010EE66EF50E76
:10566000E66E020EE66EAD0EE66E6FEC56F0E5529B
:10567000E552E552E5522FD20BC2EAF20CC2EBF230
:105680000DC2ECF20EC2EDF2DF6A040E0201D88008
:105690000F55DF5C19E20A0E236E246A256A266A1A
:1056A000EAC21EF0EBC21FF0ECC220F0EDC221F006
:1056B000BBEC77F01EC0EAF21FC0EBF220C0ECF2A8
:1056C00021C0EDF2DF2AE1D7010EE66E070EE66E8D
:1056D0000FC2E6FFEAC2E6FFEBC2E6FFECC2E6FF5E
:1056E000EDC2E6FFACEC63F0006E070EE15E005029
:1056F000040E0901B65D28E10BC245F20CC246F268
:105700000DC247F20EC248F20FC249F2F4EC40F06B
:10571000040EE66E450EE66E020EE66E720EE66E44
:105720006FEC56F0E552E552E552E552010EE66E99
:10573000490EE66E020EE66E760EE66E6FEC56F0E1
:10574000E552E552E552E552C6D10BC2EAF20CC26F
:10575000EBF20DC2ECF20EC2EDF2DF6A040E0201B2
:10576000D8800F55DF5C19E20A0E236E246A256A81
:10577000266AEAC21EF0EBC21FF0ECC220F0EDC2B6
:1057800021F0BBEC77F01EC0EAF21FC0EBF220C0A4
:10579000ECF221C0EDF2DF2AE1D7010EE66E070E32
:1057A000E66E0FC2E6FFEAC2E6FFEBC2E6FFECC21E
:1057B000E6FFEDC2E6FFACEC63F0006E070EE15EC3
:1057C0000050040E0901B65D28E10BC24AF20CC27A
:1057D0004BF20DC24CF20EC24DF20FC24EF2F4EC7F
:1057E00040F0040EE66E4A0EE66E020EE66E770E8E
:1057F000E66E6FEC56F0E552E552E552E552010EC9
:10580000E66E4E0EE66E020EE66E7B0EE66E6FECF8
:1058100056F0E552E552E552E5525DD1F4C200F092
:10582000016A026A036A0901B2510026B3510122DA
:10583000B4510222B55103220334000E031809E6C5
:10584000D880030E0054000E0154000E0254000EC6
:1058500003540BE3000EE76EB119E8AE02D0B13588
:1058600003D0E750D880B15514E3F4C204F0056AC0
:10587000066A076AB2510426B3510522B4510622C2
:10588000B55107220001800E071409E10901B13565
:1058900006E3020EB65D03E1B2510201F4270201F4
:1058A000F451030A5DE0030A41E0020A21E0030A21
:1058B00001E074D0690E0301006F016BDC0E026F12
:1058C000036BF00E046F056B0F0E066F076B3B0E3C
:1058D000086F010E096F4A0E0A6F010E0B6F540E0E
:1058E0000C6F010E0D6F4F0E0E6F010E0F6F56D025
:1058F000690E0301006F016BDC0E026F036BF00E8B
:10590000046F056B0F0E066F076B3B0E086F010EE1
:10591000096F4A0E0A6F010E0B6F590E0C6F010EC4
:105920000D6F4F0E0E6F010E0F6F38D0690E030111
:10593000006F016BDC0E026F036BF00E046F056BE2
:105940000F0E066F076B3B0E086F010E096F780E86
:105950000A6F0B6BCD0E0C6F0D6B0E6F0F6B1ED0A5
:10596000690E0301006F016BDC0E026F036BF00E1A
:10597000046F056B0F0E066F076B3B0E086F010E71
:10598000096F4A0E0A6F010E0B6F680E0C6F010E45
:105990000D6F4F0E0E6F010E0F6F00D00EC3E6FF9E
:1059A0000FC3E6FF0CC3E6FF0DC3E6FF0AC3E6FF25
:1059B0000BC3E6FF08C3E6FF09C3E6FF06C3E6FF25
:1059C00007C3E6FF04C3E6FF05C3E6FF02C3E6FF25
:1059D00003C3E6FF00C3E6FF01C3E6FFCFEC61F0BF
:1059E000006E100EE15E0050040E0901B65D0EE17E
:1059F000010EE66EF40EE66E020EE66E850EE66EA3
:105A00006FEC56F0E552E552E552E55264D0020ED5
:105A10000901B65D5FE1B66B0401046B03019F6B86
:105A20000101070E056F010E066F05C1E9FF06C1F2
:105A3000EAFFEECF00F1EECF01F1EECF02F1EECFB3
:105A400003F1EFCF04F10301360E0E6F010E0F6F5D
:105A5000360E0C6F010E0D6F360E0A6F010E0B6FB6
:105A6000360E086F010E096F360E066F010E076FB6
:105A7000360E046F010E056F360E026F010E036FB6
:105A8000360E006F010E016F0EC3E6FF0FC3E6FF77
:105A90000CC3E6FF0DC3E6FF0AC3E6FF0BC3E6FF38
:105AA00008C3E6FF09C3E6FF06C3E6FF07C3E6FF38
:105AB00004C3E6FF05C3E6FF02C3E6FF03C3E6FF38
:105AC00000C3E6FF01C3E6FFCFEC61F0006E100EED
:105AD000E15E005000D0E552E552E7CFD9FF120059
:105AE000D9CFE6FFE1CFD9FF030EE126DBEC7AF058
