:020000040000FA
:06000000D5EF08F012002C
:0600080045EF07F01200B5
:06002A000100DE110000E0
:0800300000030000890000003C
:08003800019E08D0019E09AEF3
:1000400005D0086C091EE86A0922018E09C003F078
:1000500008C002F0136A126A8E0E046E056A33EF4E
:1000600002F0019E0CD0019E09AE09D0066C071E5D
:10007000081E091EE86A072208220922018E09C00B
:1000800003F008C002F007C013F006C012F09E0E85
:10009000046E056A33EF02F00F7E016A6FEC02F026
:1000A00087EC02F001B617EF02F001A20AD001AA14
:1000B00003D001BE17EF02F001A423EF02F020EFFE
:1000C00002F001AA05D001AC23EF02F020EF02F00C
:1000D00001A00AD001A808D001BE04D001A402D01A
:1000E0002CEF02F030EF02F0126A056A0F500A5C42
:1000F000116E10E307C013F008C002F009C003F04E
:100100000AC010F00CC007F00DC008F00EC009F0D6
:10011000013A09D00CC013F00DC002F00EC003F07C
:100120000FC010F0116C019E01BC018E10C004F0D4
:1001300001B05FEF02F01A0E11605FEF02F0046A87
:100140000A6A01A408D0076C081E091E0A1EE86A84
:10015000082209220A2201AC08D0136C021E031ED9
:10016000041EE86A022203220422066A115207E0F2
:100170000A340932083207320632112EF9D70750F5
:10018000132608500222095003220A50042206C0F6
:1001900012F0019E04AE0BD0126C131E021E031E41
:1001A000041EE86A1322022203220422018E04A004
:1001B00006D0D8800332023213321232102A10C015
:1001C00004F033EF02F0016A6FEC02F087EC02F00A
:1001D00001B617EF02F001A205D001BA17EF02F045
:1001E0001EEF02F001BA2AEF02F001A005D001B81B
:1001F00017EF02F02AEF02F001B81EEF02F0056AD5
:100200007F0E0A24046EE86A05220F50045EE86A35
:10021000055A1A0E106E0A6A126A136A026A036A93
:100220000C50075E0D50085A0E50095A000E0A5A1B
:1002300009E70C5007260D5008220E500922000E27
:100240000A2201D0128AD8900736083609360A36B3
:10025000D8901236133602360336102EE1D70950E5
:1002600008100710D8A4128A33EF02F0016A6FEC6D
:1002700002F087EC02F001B617EF02F001A205D000
:1002800001B817EF02F01EEF02F001AA05D001B08D
:1002900017EF02F01EEF02F001B002D001A802D069
:1002A0002AEF02F0056A0F500A24046EE86A05225C
:1002B0007E0E045EE86A055A126A136A026A036ACD
:1002C0000E500902F4CF03F0F3CF02F00D500902F3
:1002D000F3501326F4500222000E03220E5008029F
:1002E000F3501326F4500222000E03220C50090290
:1002F000F3501226F4501322000E022203220D5056
:100300000802F3501226F4501322000E0222032298
:100310000E500702F3501226F4501322000E022250
:1003200003220C500802F4501226000E132202225F
:1003300003220D500702F4501226000E132202224F
:10034000032233EF02F008C012F008500D02F4CF80
:1003500007F0F3CF06F009500E02F4CF09F0F3CF07
:1003600008F00D02F3500726F4500822E86A09222B
:1003700012500E02F3500726F4500822E86A0922B0
:10038000000C016A6FEC02F001B6CBEF01F001A2A4
:100390000AD001B403D07F0E096E19D0800E096E09
:1003A00016D0096A14D001B0FCD7870E0A60F1D7C5
:1003B0007E0E0A64F6D7860E0A5C04E0D8900932F5
:1003C0000A2AF9D701A403D0096C09AEEAD71200B2
:1003D000016A6FEC02F001B6F2EF01F001A20ED05B
:1003E00001B405D07F0E096EFF0E086E1FD0800E7F
:1003F000096E086A1BD0096A086A18D001B0FBD7D9
:100400008F0E0A60EDD77E0E0A64F5D78E0E0A5C59
:1004100005E0D890093208320A2AF8D701A406D09C
:10042000086C091EE86A092209AEE5D712007F0EA2
:100430000A6EFF0E096E086E076E12007F0E01BE77
:10044000FF0E0A6E02D07F0E0A6E800E096E086AD9
:10045000076AF3D701AE04D0800E0A6E096AF7D797
:100460000A6A096AF4D70350021013101210F8E058
:1004700005BEF0D703BE0CD004500510EBE0D890B9
:1004800012361336023603360406D8A00506F2D714
:100490000550D4E10428D2E012AE11D07F0E121420
:1004A00002E113A00CD0132AE86A0222032207E318
:1004B000D880033202321332042A0428BFE00450E9
:1004C000C9E013C007F002C008F00334096E04301D
:1004D0000A6E09320A9E01BE0A8E1DEF02F009362D
:1004E0000A3602E30184017E06E101800A6A096A94
:1004F000086A076A12000A2803E0D880093212004D
:10050000D890093202E101821200018612000E36F3
:100510000F3602E3018C017E06E101880F6A0E6A44
:100520000D6A0C6A12000F2803E0D8800E32120008
:0A053000D8900E32EAE1018A1200B1
:06053A003FDA9490949C4E
:10054000948E82900301010EA86FA46BC20EA56F5A
:10055000010EA66FA76B800E186E960E196E180E00
:100560001A6E4A0E1B6EA4C306F0A5C307F0A6C3FD
:1005700008F0A7C309F031EC00F007C01CF008C078
:100580001DF009C01EF00AC01FF007C00CF008C023
:100590000DF009C00EF00AC00FF018C007F019C026
:1005A00008F01AC009F01BC00AF0E3EC00F0E5D92E
:1005B000F8D94CEC00F007C0DEFF08C0DEFF09C030
:1005C000DEFF0AC0DDFFDD52DD52DECF07F0DECFF9
:1005D00008F0DECF09F0DDCF0AF0DD52DD52E8ECA5
:1005E00001F008C01EF009C01FF0E2D9EECF1AF0EA
:1005F000EECF1BF0EECF1CF0EFCF1DF00C6A0D6AB2
:10060000200E0E6E410E0F6E1AC007F01BC008F0D0
:100610001CC009F01DC00AF036EC01F0E8EC01F056
:100620001EC00DF01FC00EF0AFEC08F004C018F0B3
:1006300005C019F0050E045C000E055816E3B8D984
:10064000EECF20F0EECF21F0EECF22F0EFCF23F06F
:10065000A8D920C007F021C008F022C009F023C0AB
:100660000AF04DEC00F089D909D0A2D9EECF14F0F0
:10067000EECF15F0EECF16F0EFCF17F014C007F065
:1006800015C008F016C009F017C00AF0C1EC01F05F
:100690000950AF6EAC9CAC8AAC98AC84AB8EAB9C72
:1006A000AB88AB969E989D989F8A9E9A9D8A0301DF
:1006B000A06B9E6B9F6B040EE15C02E2E16AE55267
:1006C000E16E36D12CD9060EE12402E3E168E65250
:1006D000E16E020EDB68030EDB68DF6AFB0EDB50A7
:1006E000DF5C40E2DF50E76EFC0EDBCFE9FFFD0E82
:1006F000DBCFEAFFE750E926000EEA22EF50E76E73
:100700001DD9E750141A32D9DE52010EDD6EDB50CE
:10071000080826E3010EE76E020EDBCF14F0030E8D
:10072000E7501416156A040E14C0DBFF050E15C041
:10073000DBFF04D9D8901532143218D9D950040FE0
:10074000E96E000EDA20EA6EEE50ED1006E0F6D803
:10075000010E141AA00E151A09D9010EDB2AD7D7DB
:10076000DF2ABCD7EBD814C0F3FF15C0F4FF060E88
:10077000E15C02E2E16AE552E16EDAD01ED9DE6A9E
:10078000DE6ADE6ADD6ADD52DD52F29ECC6AFA0E66
:10079000CB6ECA8CCA86CA8ACA88CA82CA90CA84E0
:1007A000F28C9D829F92040EE15C02E2E16AE552C6
:1007B000E16EBED0B4D8E6529D9A8280080EE66EF5
:1007C00081EC08F0E552DF6AFD0EDB50DF5C0CE2E5
:1007D000AC50020BFDE09E50100BFAE0DF50D6D873
:1007E000EF50AD6EDF2AF0D7AC50020BFDE09E500B
:1007F000100BFAE0080EE66E81EC08F0E5528290EC
:10080000AECF89F3AB98AB889E9A9D8AE55290D083
:1008100086D8150EE12402E3E168E652E16E130E7C
:10082000DB6A140EDB6A0301A251A31171E0020E10
:10083000A15D92D8020EF3CFDBFF030EF4CFDBFFF6
:10084000020E0301A15DA2D8EFCFDFFFA1059ED864
:10085000010EEFCFDBFF020EDB50DF1856E1030E77
:10086000DB50DE52DD1851E1010EDE6EDD6A020E54
:10087000F36EDB6E030EDB6A8FD8100E66D801C3F1
:100880004FF202C350F2E6C2E7F286D80C0E5DD8F2
:1008900001C351F202C352F2E6C27FF37DD80E0EBD
:1008A00054D801C353F202C354F2E6C280F374D8A1
:1008B0000A0E4BD801C381F30301846B856B0301DE
:1008C0000A0E8C6F50C28DF34FC28EF352C28FF35B
:1008D00051C290F354C291F353C292F3E7C293F31F
:1008E0007FC394F380C395F301C396F30D0E34D800
:1008F000F3CFDEFFF4CFDDFFDFCF97F3010EDBCFC9
:1009000098F30F0EE66E56DFE5520301A26BA36B60
:10091000150EE15C02E2E16AE552E16E09D0D9CF41
:10092000E6FFDACFE6FFE1CFD9FFE2CFDAFF120030
:10093000E552E5CFDAFFE7CFD9FF1200020EDBCF99
:1009400014F0030EDBCF15F01200E66E0AEC05F092
:10095000E552E552E5521200E66E8A0EE66E030E8F
:10096000E66EB0DEE552E552E5521200020E14C00A
:10097000DBFF030E15C0DBFF120007C014F008C038
:1009800015F009C016F00AC017F01200EA6A8A0FC3
:10099000E96E030EEA2212004D0EE66E020EE66EBE
:1009A00012000C6A0D6A800E0E6E3F0E0F6E120062
:1009B000D9CFE9FFDACFEAFF1200B1DFE652E65203
:0609C000E652E6521200AF
:0A09C600E6D90A0E5BD9FF0E0117F7
:1009D0000F0E0217A6D975D1DDD9020E52D9FF0E1E
:1009E00001173F0E02179DD96CD1D4D9100ECFD963
:1009F00001E078D9FF0E030101173F0E021785D9D8
:100A000057D908C04FF209C050F217C3E7F2F36A92
:100A1000F46A57D1BFD9FD0EDBCFE6FFBED9E66A37
:100A2000BCD9808A0A0EE66EE3EC08F0E552809AA3
:100A3000020EE66EFB0EDBCFE6FFFC0E98D9FD0E34
:100A4000DB500A0A1EE01A0A04E01C0A02E0020A4D
:100A50004BE16CD93CD901E045D9FF0E03010115EA
:100A6000186E3F0E0215196E18C008F0096E1CECC6
:100A700000F01ED908C001F309C002F317C3E6F263
:100A800033D054D9FF0E01170F0E021701C309F21C
:100A900002C30AF20201FE0E095F040E0A5B3BD993
:100AA0002BD9D70E0C6EA30E0D6EF00E0E6EBE0E71
:100AB0000F6E36EC01F048D9C80E0E6E410E0F6E67
:100AC0004DEC00F0E8EC01F008C009F209C00AF2B0
:100AD0000201800E091404E0096D0A1F000E0A23AA
:100AE00009C201F30AC202F3ECD04AD90C0E4FD965
:100AF00001E0F8D8FF0E030101173F0E021701C3F2
:100B000009F202C30AF20301175105E00201096D5F
:100B10000A1F000E0A23FFD8CBD808C009F209C06B
:100B20000AF2840E020108240301016F030E020180
:100B300009200301026F01C3F3FFF46E040EE15CB0
:100B400002E2E16AE552E16EBCD01AD90E0E1FD95D
:100B50000CE00868096801C30DF002C30EF0A3ECB5
:100B600001F006C001F307C002F317C380F3FF0EC4
:100B7000030101171F0E0217570E146E7B0E156E20
:100B8000800E166E3E0E176EC0D8B6D807C00CF099
:100B900008C00DF009C00EF00AC00FF014C007F035
:100BA00015C008F016C009F017C00AF036EC01F0C5
:100BB000E8EC01F008C001F309C002F308C014F02A
:100BC00009C015F00A0E0D6E0E6AAFEC08F004C0F5
:100BD00014F005C015F0020E04C0DBFF030E05C0C3
:100BE000DBFF020EDB500301015F030EDB50025BF3
:100BF0000151021102E10301806B93D8040EE15C04
:100C000002E2E16AE552E16E5CD0C4D8380E39D810
:100C10000F0E0115016F026BF36E02C3F4FF51D08A
:100C20003ED8E652809AB80EE66EB7D8080EDF6E50
:100C3000DFCFE6FF94D8E55244D0929A94969488F8
:100C4000949A9290808093988198C76AC66AC79E4A
:100C5000C79CC688C68AC68212004D0EE66E020E7A
:100C6000E66EC3DEE552E552F3CF07F3F4CF08F3A7
:100C7000D7DFFA0EE66EE66A81EC08F0E552E5523F
:100C80001200E66E8AD8E66A6AD8809A020EE66E8C
:100C9000FC0EDBCFE6FFFD0E6AD896EF06F0D9CF4B
:100CA000E6FFDACFE6FFE1CFD9FFE2CFDAFF1200AD
:100CB0004BD8800E0E6E3E0E0F6E36EC01F0E8EF54
:100CC00001F0E552E5CFDAFFE7CFD9FF1200E838AF
:100CD000156AE830070B146E010E14140301176F28
:100CE000E85012000301011F021F010E0125016FD0
:100CF000000E0221026F120007C018F008C019F0A0
:100D000009C01AF00AC01BF0120001C308F002C3A8
:100D100009F01CEF00F009C208F00AC209F01EEF4A
:100D200000F001C3F3FF02C3F4FF12004DC214F040
:100D30004DC215F0146A02014E5103011424016FD3
:100D4000000E1520026F120007C014F008C015F045
:100D500009C016F00AC017F00C6A0D6A12001DD8FF
:100D6000808A010EE66EE3EC08F0E5521200DBCF5C
:100D7000E6FF40EC08F0E552E552E552808A1200A9
:100D80008EDFE652E652E652E652809A120079DF92
:100D900067EF06F084DF809A120063EC08F0E552FA
:020DA00012003F
:0E0DA200D9CFE6FFDACFE6FFE1CFD9FFE2CFEF
:100DB000DAFF080EE12402E3E168E652E16E020E7A
:100DC000DB6A050EDB6A060EDB6A070EDB6ABEEC29
:100DD00003F09DEC02F0F28E070EC16EF28C1DEC5A
:100DE00006F08188F29E2DEC06F0F28E04000000E1
:100DF00003011E0ED8808455000E855504E2010EB5
:100E00000301866F876B0301640ED8808255000E44
:100E100083550FE20301640E845D000E855904E2E0
:100E20000301842B000E852381780301826B836B81
:100E300004D00301822B000E83230301885105088F
:100E400003E20301886B02D00301882B08EC04F055
:100E5000CDD7080EE15C02E2E16AE552E16EE552AF
:100E6000E5CFDAFFE7CFD9FF1200D09EF29EF29CC9
:100E7000070EC16E93948194FA0EE66E81EC08F031
:100E8000E552D09EF28EF28C1200E9CFE4FFEACF59
:100E9000E4FFE6529EA21ED00301020E9E5D000EEC
:100EA0009F5905E203019E2B000E9F2311D00301E1
:100EB000A051020808E2A0C3A1F30301A06B010E38
:100EC0000301A26FA36B0301A251A31101E19D8A4B
:100ED00000009E92AB50020B03E1AB50040B07E005
:100EE000AECF8AF3AECF8AF3AB98AB882FD09EAA51
:100EF0002DD09DAA27D003019E6B9F6BAECF89F3A7
:100F00000301A0510FE10301A8510301895D03E032
:100F10000301895105E189C38AF30301A02B01D0A4
:100F20009D9A0FD00301A051EA6A8A0FE96E030E61
:100F3000EA2289C3EFFF140E0301A05D02E2030160
:100F4000A02B04D0AECF89F3AECF89F3E552E5CF25
:100F5000EAFFE5CFE9FF1100D9CFE6FFDACFE6FFE0
:100F6000E1CFD9FFE2CFDAFF26D80201E26F0ED837
:100F70000201E36F0BD80201E46F08D80201E56FAC
:100F8000E552E5CFDAFFE7CFD9FF1200D950FC0FC9
:100F9000E96EFF0EDA20EA6E0A0E0D6E0E6AEECFD3
:100FA00008F0EDCF09F0AFEC08F008C0EEFF09C083
:100FB000EDFFDBEF07F0FC0EDBCF14F0FD0EDBCF17
:100FC00015F00A0E0D6E0E6A14C008F015C009F077
:100FD000AFEC08F004C014F005C015F0300E042486
:020FE0001200FD
:0E0FE2002A0EF66E000EF76E000EF86E02017B
:100FF0000900F550F16F0900F550F26F03E1F16758
:1010000001D03DD00900F550EC6F0900F550ED6FAF
:101010000900F550EE6F09000900F550E96E09006E
:10102000F550EA6E090009000900F550EF6F09005C
:10103000F550F06F09000900F6CFF3F2F7CFF4F2A4
:10104000F8CFF5F2ECC2F6FFEDC2F7FFEEC2F8FF03
:101050000201EF5302E1F05307E00900F550EE6E94
:10106000EF07F8E2F007F9D7F3C2F6FFF4C2F7FF93
:10107000F5C2F8FF0201F107000EF25BBFD71200C4
:10108000D9CFE6FFDACFE6FFE1CFD9FFE2CFDAFF33
:10109000FB0EDB5012E098EC08F0E66EFC0EDBCFA6
:1010A000E9FFDB2AFD0EDBCFEAFF01E3DB2AE55295
:1010B000E750EF6EFB0EDB06EBD7E552E5CFDAFF2C
:0610C000E7CFD9FF12008A
:0A10C600D9CFE6FFDACFE6FFE1CF55
:1010D000D9FFE2CFDAFFE652C950DF6E9E96C69E78
:1010E000FD0EDB50C96EC6AE02D0FF0E03D09EA629
:1010F000FED7000EE552E552E5CFDAFFE7CFD9FF84
:021100001200DB
:0E110200FF0EE350256EEF0E01D0F30EE76EE8
:10111000E72E88EF08F00C0E246EE76AE72E8EEFBC
:1011200008F0242E8DEF08F0252E86EF08F012002F
:10113000D9CFE6FFDACFE6FFE1CFD9FFE2CFDAFF82
:10114000E652C950DF6E9E96C96A9EA6FED7C95068
:0E115000E552E552E5CFDAFFE7CFD9FF1200F6
:02115E00056A20
:10116000046A100EE76ED890083609360436053644
:101170000D50045C0E50055805E30D50045E0E50F2
:0A118000055A082AE72EF0D71200E6
:06118A00000EF36E00EE02
:1011900000F0060E01D81200EA6002D0EE6AFCD719
:0A11A000F350E9601200EE6AFCD77C
:0611AA0015EE00F025EE39
:1011B00000F0F86A019CF1EC07F0EEEC08F0D1ECDD
:0611C00006F0FBD712004F
:0A11C600FF0EE350E84E1200000097
:0C11D00000D000D000D0E82EFAD71200AA
:0211DC001200FF
:0211DE0000000F
:1011E00000000000000000000000000000000000FF
:1011F00000000000000000000000000000000000EF
:1012000000000000000000000000000000000000DE
:101210000000000000000000006400000100000069
:1012200000000000000000000000000000000000BE
:101230000000000000007B00000000000000000033
:10124000000000000000000000000000000000009E
:10125000000000000000000000000000000000008E
:071260000000000000000087
:00000001FF
